:020000040000FA
:060000000A128A110C280F
:10000800FE00030EF1000A08F2000A128A113A29CA
:100018000A128A110F280A128A11AE210A128A11AD
:10002800E7000A128A11AF210A128A11E800831325
:100038002030840049300A128A11A6210A128A1136
:10004800F801F90183010A128A1196298312031310
:10005800D201CC1F302831283E28C909CA09CB094A
:10006800CC09C90A0319CA0A0319CB0A0319CC0A0D
:10007800D201D20AD01F412842285128CD09CE09E1
:10008800CF09D009CD0A0319CE0A0319CF0A0319DB
:10009800D00A0130F3007308D2060030D6000030D1
:1000A800D5000030D4000030D3004C084B044A047B
:1000B8004904031960286128AE28D101D10A7128A2
:1000C8000130F3000310C90DCA0DCB0DCC0DF30B95
:1000D80066280130F3007308D107CC1F74287528EF
:1000E80064280130F3000310D30DD40DD50DD60DBF
:1000F800F30B77284C085002031D8C284B084F023D
:10010800031D8C284A084E02031D8C2849084D02FD
:10011800031C8F2890289F284908CD024A08031CF1
:100128004A0FCE024B08031C4B0FCF024C08031C8E
:100138004C0FD002531401300310CC0CCB0CCA0C5A
:10014800C90CFF3E031DA0280130D102031DAD28B4
:10015800AE28752852080319B228B328BE28D30937
:10016800D409D509D609D30A0319D40A0319D50A1B
:100178000319D60A5608CC005508CB005408CA0003
:100188005308C90008008316031318139816181289
:10019800181183160317871183120313981718165B
:1001A8005708DB005808DC005908DD005A08DE0053
:1001B80006300310DB0DDC0DDD0DDE0DFF3E031DEB
:1001C800DD285E08CC005D08CB005C08CA005B082F
:1001D800C9005708DF005808E0005908E1005A082C
:1001E800E20006300310DF0DE00DE10DE20DFF3EE9
:1001F800031DF6280030E3001230E4007A30E500F1
:100208000030E6005F08E3026008031C600F0D2958
:100218000E29E4026108031C610F13291429E50261
:100228006208031C620F19291A29E6026608D00021
:100238006508CF006408CE006308CD000A128A1151
:100248002A200A128A11831203134C08F7004B085C
:10025800F6004A08F5004908F400740883160313E9
:1002680099008B170B178C160C16080083120313B2
:100278008C1E3F29402944291A08F0007008C8003C
:100288000C1E472948295A2978089900FE30780613
:100298007904031D502951295429F801F9015A29D3
:1002A8000130F8070318F90A0030F90772088A00C4
:1002B800710E8300FE0E7E0E090083160317880157
:1002C800831603138501831203138501831603170D
:1002D800890183160313860183120313860183168B
:1002E80003139601880183120313880183160313ED
:1002F800890183120313890108000A128A116121F6
:100308000A128A11003083120313DA000030D90070
:100318002530D8008030D7000A128A11C7200A1267
:100328008A1108000A128A1181210A128A11703072
:10033800831603138F048312480888009F290A1222
:100348008A110C2864008001840A04060319003409
:080358000406A7293234003429
:04400E00F420FF3F5C
:00000001FF
