:020000040000FA
:060000000A128A110E280D
:10000800FE00030EF1000408F2000A08F3000A12C9
:100018008A11972A0A128A111128F801F901831204
:100028000313C301C401C501C601C701C801C90141
:10003800CA01CB01CC01CD01CE0183010A128A117C
:10004800C22883120313A901A31F2B282C2839289F
:10005800A009A109A209A309A00A0319A10A031961
:10006800A20A0319A30AA901A90AA71F3C283D2827
:100078004C28A409A509A609A709A40A0319A50AD1
:100088000319A60A0319A70A0130F4007408A9067F
:100098000030AD000030AC000030AB000030AA00EA
:1000A800230822042104200403195B285C28A928BA
:1000B800A801A80A6C280130F4000310A00DA10DB6
:1000C800A20DA30DF40B61280130F4007408A807F1
:1000D800A31F6F2870285F280130F4000310AA0DB1
:1000E800AB0DAC0DAD0DF40B722823082702031DD0
:1000F800872822082602031D872821082502031DB8
:10010800872820082402031C8A288B289A2820087C
:10011800A4022108031C210FA5022208031C220F98
:10012800A6022308031C230FA7022A140130031078
:10013800A30CA20CA10CA00CFF3E031D9B280130B0
:10014800A802031DA828A928702829080319AD2882
:10015800AE28B928AA09AB09AC09AD09AA0A03193E
:10016800AB0A0319AC0A0319AD0A2D08A3002C0821
:10017800A2002B08A1002A08A00008000A128A1170
:1001880057230A128A110A128A11CD220A128A11D9
:100198007030831603138F04413083124E06031DFB
:1001A800D628D728DB280130CC000030CD004230DB
:1001B8004E06031DE028E128E328CC01CD013230AA
:1001C800A2000030A3000A128A111C220A128A1106
:1001D800831203132208C2004208C3003330A2006E
:1001E8000030A3000A128A111C220A128A118312F3
:1001F80003132208C2004208C4003430A2000030B1
:10020800A3000A128A111C220A128A1183120313EC
:100218002208C2004208C5003530A2000030A30001
:100228000A128A111C220A128A1183120313220845
:10023800C2004208C6003630A2000030A3000A12ED
:100248008A111C220A128A11831203132208C2007F
:100258004208C7003730A2000030A3000A128A11F2
:100268001C220A128A11831203132208C2004208B0
:10027800C800D0280A128A110E28831603131813EF
:10028800981618121811831603178711831203136F
:10029800981718162E08B2002F08B3003008B400BB
:1002A8003108B50006300310B20DB30DB40DB50D0D
:1002B800FF3E031D57293508A3003408A200330860
:1002C800A1003208A0002E08B6002F08B700300899
:1002D800B8003108B90006300310B60DB70DB80DD7
:1002E800B90DFF3E031D70290030BA001230BB0063
:1002F8007A30BC000030BD003608BA023708031C4B
:10030800370F87298829BB023808031C380F8D2925
:100318008E29BC023908031C390F93299429BD0280
:100328003D08A7003C08A6003B08A5003A08A40021
:100338000A128A1125200A128A118312031323082C
:10034800C1002208C0002108BF002008BE003E08E6
:100358008316031399008B170B178C160C160800BD
:10036800003083120313AB000030AA000030A9004C
:100378000030A80023082204210420040319C529F9
:10038800C629132AAC01AC0AD6290130F40003109F
:10039800A00DA10DA20DA30DF40BCB290130F40083
:1003A8007408AC07A31FD929DA29C9290130F40038
:1003B8000310A80DA90DAA0DAB0DF40BDC29230819
:1003C8002702031DF12922082602031DF12921080D
:1003D8002502031DF12920082402031CF429F5290C
:1003E800042A2008A4022108031C210FA5022208C0
:1003F800031C220FA6022308031C230FA70228149C
:1004080001300310A30CA20CA10CA00CFF3E031D8D
:10041800052A0130AC02031D122A132ADA292B08F7
:10042800A3002A08A2002908A1002808A0000800A3
:100438000A128A11BB230A128A11A630F40000306E
:10044800F5000A128A11A8230A128A1183120313CB
:100458002308F5002208F4000A128A11A8230A12B8
:100468008A110A128A11BB230A128A11A730F400D2
:100478000030F5000A128A11A8230A128A110030E6
:10048800F400F5000A128A11FE220A128A11750870
:1004980083120313A5007408A4000A128A11B22358
:1004A8000A128A11831203132508A3002408A20044
:1004B8000800283083120313940083160313910154
:1004C800831203132D08B1002E08B2002F08B300C1
:1004D8003008B40002300310B10DB20DB30DB40DE5
:1004E800FF3E031D6F2A3408A3003308A200320818
:1004F800A1003108A0000030A7007A30A600123011
:10050800A5000030A4000A128A11B4210A128A1127
:10051800831203132008FF3E8316031393009401EC
:10052800871507160800831203138C1E9C2A9D2A20
:10053800A12A1A08F0007008CE000C1EA42AA52AC9
:10054800C42A4C084D04031DAA2AAB2AAE2A4130FE
:100558009900C42A7808433E840083130008990050
:10056800053078067904031DBA2ABB2ABE2AF80189
:10057800F901C42A0130F8070318F90A0030F9070D
:1005880073088A0072088400710E8300FE0E7E0EC6
:100598000900313083120313A0000030A1000B3092
:1005A800A2000030A3000A128A112D230A128A1110
:1005B8000630F7003030F600F60BE02AF70BE02A99
:1005C80000002D3083120313A0000030A100083072
:1005D800A2000030A3000A128A112D230A128A11E0
:1005E8000630F7003030F600F60BF82AF70BF82A39
:1005F800000008000A128A119B230A128A11831626
:10060800031391150A128A119B230A128A11831265
:1006180003131308F600F7017608A0007708A10075
:100628000A128A119B230A128A1174087504031985
:100638001E2B222B831603139116252B83160313C7
:1006480091121116831203132108F5002008F400F3
:1006580008000A128A11BB230A128A11A630F40074
:100668000030F5000A128A11A8230A128A1183128F
:1006780003132108F5002008F4000A128A11A823A0
:100688000A128A11831203132308F5002208F400C2
:100698000A128A11A8230A128A110A128A11B2238D
:1006A8000A128A1108000A128A117B230A128A1177
:1006B800003083120313B1000030B0002530AF00C2
:1006C8008030AE000A128A1141210A128A110030C4
:1006D80083120313B0000130AF008630AE00A030A3
:1006E800AD000A128A115D220A128A1108008316C7
:1006F80003178801831603138501831203138501E9
:1007080083160317890183160313860183120313C3
:100718008601831603139601880183120313880147
:1007280083160313890183120313890108008316B2
:1007380003131419A02BA12B9B2B11081F39031D80
:10074800A62BA72B9B2B08000A128A119B230A129F
:100758008A11740883120313930008000A128A117D
:100768009B230A128A1183160313111508000A1213
:100778008A119B230A128A11831603131114080085
:04400E00F420FF3F5C
:00000001FF
