:020000040000FA
:060000000A128A110E280D
:10000800FE00030EF1000408F2000A08F3000A12C9
:100018008A11CE2A0A128A111128F701F801F9016A
:1000280083120313C301C401C501C601C701C80176
:10003800C901CA0183010A128A11BF288312031356
:10004800A901A31F282829283628A009A109A2093F
:10005800A309A00A0319A10A0319A20A0319A30AEA
:10006800A901A90AA71F39283A284928A409A509D6
:10007800A609A709A40A0319A50A0319A60A0319B8
:10008800A70A0130F4007408A9060030AD0000305A
:10009800AC000030AB000030AA0023082204210481
:1000A8002004031958285928A628A801A80A69284D
:1000B8000130F4000310A00DA10DA20DA30DF40B47
:1000C8005E280130F4007408A807A31F6C286D2867
:1000D8005C280130F4000310AA0DAB0DAC0DAD0D7A
:1000E800F40B6F2823082702031D84282208260200
:1000F800031D842821082502031D842820082402C2
:10010800031C8728882897282008A4022108031C94
:10011800210FA5022208031C220FA6022308031C94
:10012800230FA7022A1401300310A30CA20CA10C60
:10013800A00CFF3E031D98280130A802031DA52826
:10014800A6286D2829080319AA28AB28B628AA09C1
:10015800AB09AC09AD09AA0A0319AB0A0319AC0A21
:100168000319AD0A2D08A3002C08A2002B08A10032
:100178002A08A00008000A128A114E230A128A11BE
:100188007030831603138F047903031DCC28CD2800
:10019800D02883120814EB2802307906031DD528CD
:1001A800D628D92883120810EB2803307906031DB6
:1001B800DE28DF28E22883128814EB280430790629
:1001C800031DE728E828EB2883128810EB28323033
:1001D8008312A1000030A2000A128A111F220A12FB
:1001E8008A1183120313C2004208C3003330A100EE
:1001F8000030A2000A128A111F220A128A118312E1
:100208000313C2004208C4003430A1000030A20029
:100218000A128A111F220A128A1183120313C200BA
:100228004208C5003530A1000030A2000A128A1128
:100238001F220A128A1183120313C2004208C60041
:100248003630A1000030A2000A128A111F220A12B9
:100258008A1183120313C2004208C7003730A10075
:100268000030A2000A128A111F220A128A11831270
:100278000313C2004208C800C8280A128A110E28AF
:1002880083160313181398161812181183160317D8
:10029800871183120313981718162E08B2002F0817
:1002A800B3003008B4003108B50006300310B20DB1
:1002B800B30DB40DB50DFF3E031D5A293508A30033
:1002C8003408A2003308A1003208A0002E08B600A6
:1002D8002F08B7003008B8003108B90006300310FD
:1002E800B60DB70DB80DB90DFF3E031D73290030CB
:1002F800BA001230BB007A30BC000030BD003608AE
:10030800BA023708031C370F8A298B29BB02380821
:10031800031C380F90299129BC023908031C390F96
:1003280096299729BD023D08A7003C08A6003B086E
:10033800A5003A08A4000A128A1122200A128A117A
:10034800831203132308C1002208C0002108BF003C
:100358002008BE003E088316031399008B170B175D
:100368008C160C160800003083120313AB00003003
:10037800AA000030A9000030A800230822042104A4
:1003880020040319C829C929162AAC01AC0AD9299D
:100398000130F4000310A00DA10DA20DA30DF40B64
:1003A800CE290130F4007408AC07A31FDC29DD292D
:1003B800CC290130F4000310A80DA90DAA0DAB0D2E
:1003C800F40BDF2923082702031DF429220826023B
:1003D800031DF42921082502031DF42920082402FD
:1003E800031CF729F829072A2008A4022108031C5E
:1003F800210FA5022208031C220FA6022308031CB2
:10040800230FA702281401300310A30CA20CA10C7F
:10041800A00CFF3E031D082A0130AC02031D152A5B
:10042800162ADD292B08A3002A08A2002908A10002
:100438002808A00008000A128A11B7230A128A1194
:10044800A630F4000030F5000A128A11A4230A121B
:100458008A11831203132208F5002108F4000A12F6
:100468008A11A4230A128A110A128A11B7230A12BE
:100478008A11A730F4000030F5000A128A11A4236B
:100488000A128A110030F400F5000A128A11252395
:100498000A128A1183120313A300A4012308A500DA
:1004A8002408A6000A128A11AE230A128A1183129E
:1004B80003132508080028308312031394008316B9
:1004C80003139101831203132D08B1002E08B20003
:1004D8002F08B3003008B40002300310B10DB20D7C
:1004E800B30DB40DFF3E031D712A3408A300330871
:1004F800A2003208A1003108A0000030A7007A301D
:10050800A6001230A5000030A4000A128A11B721F3
:100518000A128A11831203132008FF3E831603135D
:1005280093009401871507160800313083120313CE
:10053800A0000030A1000B30A2000030A3000A1276
:100548008A11FB220A128A11063083120313A500AE
:100558002F30A400A40BAE2AA50BAE2AB32A2D3047
:1005680083120313A0000030A1000830A20000305D
:10057800A3000A128A11FB220A128A11063083127A
:100588000313A5002F30A400A40BC82AA50BC82A62
:10059800CD2A0800831203138C1ED32AD42AD82A02
:1005A8001A08F0007008F9000C1EDB2ADC2AF22A6F
:1005B8007708433E840083130008990005307706C6
:1005C8007804031DE82AE92AEC2AF701F801F22A3F
:1005D8000130F7070318F80A0030F80773088A0093
:1005E80072088400710E8300FE0E7E0E09000A1246
:1005F8008A11B7230A128A11A630F4000030F500D8
:100608000A128A11A4230A128A11831203132108D9
:10061800F5002008F4000A128A11A4230A128A118C
:10062800831203132308F5002208F4000A128A1122
:10063800A4230A128A110A128A11AE230A128A11F5
:1006480008000A128A1197230A128A1183160313C3
:1006580091150A128A1197230A128A118312031319
:100668001308F6007608A0000A128A1197230A12C6
:100678008A11740875040319422B462B8316031339
:100688009116492B83160313911211168312031323
:10069800200808000A128A1177230A128A110030EA
:1006A80083120313B1000030B0002530AF00803052
:1006B800AE000A128A1144210A128A1100308312EC
:1006C8000313B0000130AF008630AE00A030AD009B
:1006D8000A128A115F220A128A110A128A119922B1
:1006E8000A128A1108008316031788018316031358
:1006F8008501831203138501831603178901831665
:1007080003138601831203138601831603139601CC
:100718008801831203138801831603138901831246
:100728000313890108008316031314199C2B9D2BAE
:10073800972B11081F39031DA22BA32B972B0800F9
:100748000A128A1197230A128A1174088312031352
:10075800930008000A128A1197230A128A11831635
:100768000313111508000A128A1197230A128A1115
:0807780083160313111408009D
:04400E00F420FF3F5C
:00000001FF
