:020000040000FA
:060000000A128A110C280F
:10000800FE00030EF1000A08F2000A128A111428F1
:100018000A128A110F28F30183010A128A119A28F9
:10002800831203130C1F19281A282B289F181D2820
:100038001E282B281E08F0007008F3001A30F00064
:10004800F00B24280000831203130C139F148C1D3B
:100058002E282F283D2883160313141834283528F2
:100068003928831203131308880073088312930036
:100078008C1172088A00710E8300FE0E7E0E090034
:10008800013083160317880083160313051483129F
:100098000313850183160317890183160313860149
:1000A80083120313860183160313960188018312B2
:1000B800031388018316031389018312031389012B
:1000C80008008316031387158712851624308312B8
:1000D80003139400831603139401831203138C11E2
:1000E800831603138C1508008130831203139F00B5
:1000F800831603139F019E01831203139E010C179D
:10010800831603130C170B178B1708000A128A1192
:1001180044200A128A110A128A1178200A128A11B6
:100128000A128A1165200A128A1108000A128A1115
:100138008A200A128A11831203139F14A2280A1212
:040148008A110C28E4
:04400E00F120FF3F5F
:00000001FF
