:020000040000FA
:060000000A128A110C280F
:10000800FE00030EF1000A08F2000A128A111428F1
:100018000A128A110F28F30183010A128A119928FA
:10002800831203130C1F19281A282A289F181D2821
:100038001E282A281E08F0007008F3001730F00068
:10004800F00B2428831203130C139F148C1D2D28E6
:100058002E283C28831603131418332834283828EC
:1000680083120313130888007308831293008C11FA
:1000780072088A00710E8300FE0E7E0E09000130A0
:1000880083160317880083160313051483120313BA
:1000980085018316031789018316031386018312CA
:1000A8000313860183160313960188018312031331
:1000B8008801831603138901831203138901080039
:1000C80083160313871587128516243083120313AA
:1000D8009400831603139401831203138C1183165F
:1000E80003138C1508008130831203139F008316B5
:1000F80003139F019E01831203139E010C1783169D
:1001080003130C170B178B1708000A128A114320C8
:100118000A128A110A128A1177200A128A110A12FF
:100128008A1164200A128A1108000A128A11892089
:100138000A128A11831203139F14A1280A128A1122
:020148000C2881
:04400E00F120FF3F5F
:00000001FF
