:020000040000FA
:060000000A128A110E280D
:10000800FE00030E83120313A4000A08A5000A12B7
:100018008A11072D0A128A11112883120313D50198
:10002800D601D701D801D90183010A128A11B32C4C
:100038008312031332088039B7003708BC0032082E
:10004800B7003707B8003808C200B11F2C282D2880
:100058002E28421442080319322833284228420A1B
:10006800031D3728382840280030B2000030B1007E
:100078000030B0000030AF00B1174A280030B2009D
:100088000030B1000030B0000030AF0036088039D1
:10009800B7003708BC063608B7003707B800380875
:1000A800C100B51F582859285A2841144108031976
:1000B8005E285F286E28410A031D632864286C287F
:1000C8000030B6000030B5000030B4000030B30096
:1000D800B51776280030B6000030B5000030B400FF
:1000E8000030B300410803197A287B288028420889
:1000F800031D7F28802889280030B2000030B10015
:100108000030B0000030AF007C2B2F08B700370854
:10011800A60035080A128A1152250A128A1183127A
:1001280003132708C8002608C7004708B700B80106
:10013800B901BA013A08C0003908BF003808BE0042
:100148003708BD004808B700B801B901BA013A0834
:10015800C6003908C5003808C4003708C30030088D
:10016800B7003708A60034080A128A1152250A1265
:100178008A11831203132708C8002608C7004708F6
:10018800B700B801B901BA013708BD07380803112B
:100198000318013E0319D128BE07390803110318B3
:1001A800013E0319D828BF073A0803110318013E76
:1001B8000319DF28C0074808B700B801B901BA0118
:1001C8003708C307380803110318013E0319ED283F
:1001D800C407390803110318013E0319F428C50799
:1001E8003A0803110318013E0319FB28C607310812
:1001F800B7003708A60033080A128A1152250A12D6
:100208008A11831203132708C8002608C700470865
:10021800B700B801B901BA013708BD07380803119A
:100228000318013E03191929BE07390803110318D9
:10023800013E03192029BF073A0803110318013E9C
:1002480003192729C0074808B700B801B901BA013E
:100258003708C307380803110318013E0319352965
:10026800C407390803110318013E03193C29C507BF
:100278003A0803110318013E03194329C607083039
:10028800B7000310BD0DBE0DBF0DC00DB70B45293E
:100298003008B7003708A60033080A128A11522519
:1002A8000A128A11831203132708C8002608C700F8
:1002B8004708B7004808B800B901BA013708BD07B0
:1002C800380803110318013E03196B29BE073908C2
:1002D80003110318013E03197229BF073A080311D5
:1002E8000318013E03197929C0072F08B7003708FA
:1002F800A60034080A128A1152250A128A1183129A
:1003080003132708C8002608C7004708B70048088D
:10031800B800B901BA013708BD0738080311031836
:10032800013E03199829BE07390803110318013E35
:1003380003199F29BF073A0803110318013E03193F
:10034800A629C0070830B7000310BD0DBE0DBF0DAC
:10035800C00DB70BA8292F08B7003708A600330827
:100368000A128A1152250A128A11831203132708C6
:10037800C8002608C7004708B7004808B800B901F0
:10038800BA013708BD07380803110318013E0319DD
:10039800CE29BE07390803110318013E0319D529D0
:1003A800BF073A0803110318013E0319DC29C007E7
:1003B8003008B7003708A60035080A128A115225F6
:1003C8000A128A11831203132708C8002608C700D7
:1003D8004708B7004808B800B901BA013708C30789
:1003E800380803110318013E0319FB29C40739080B
:1003F80003110318013E0319022AC5073A0803111D
:100408000318013E0319092AC6073108B70037083F
:10041800A60034080A128A1152250A128A11831278
:1004280003132708C8002608C7004708B70048086C
:10043800B800B901BA013708C3073808031103180F
:10044800013E0319282AC407390803110318013E7D
:1004580003192F2AC5073A0803110318013E031987
:10046800362AC6073108B7003708A60035080A1229
:100478008A1152250A128A11831203132708C80009
:100488002608C7004708B7004808B800B901BA01EC
:1004980008300310B70DB80DB90DBA0DFF3E031D96
:1004A8004D2A3708C307380803110318013E0319FA
:1004B8005E2AC407390803110318013E0319652A87
:1004C800C5073A0803110318013E03196C2AC60729
:1004D8003D08B7003E08B8003F08B9004008BA0018
:1004E80018300310BA0CB90CB80CB70CFF3E031D3A
:1004F800752A3708C307380803110318013E031982
:10050800862AC407390803110318013E03198D2AE6
:10051800C5073A0803110318013E0319942AC607B0
:100528000830B7000310BD0DBE0DBF0DC00DB70BD1
:10053800962A42084107B700B801B80D3708823E2D
:10054800C70038080318013EFF3EC800C82A01301A
:10055800B7000310C30DC40DC50DC60DB70BAD2AEA
:10056800C01FB72AB82AB92A43140130B7000310AC
:10057800BD0DBE0DBF0DC00DB70BBB2AFF30C707A1
:100588000318C80AFF30C807C51FCB2ACC2AAB2AD4
:10059800C101C01FD02AD12AED2AFF303D05B7007E
:1005A800FF303E05B800FF303F05B9007F304005F9
:1005B800BA003A083904380437040319E42AE52A4A
:1005C800E82AC101C10AED2A431CEB2AEC2AED2ACC
:1005D800E52A41080319F12AF22A232B0130C3071F
:1005E800003003180130C407003003180130C50774
:1005F800003003180130C607461C032B042B232B9D
:100608004308B7004408B8004508B9004608BA00CE
:100618000130BB003A0DBA0CB90CB80CB70CBB0BC7
:100628000E2B3A08C6003908C5003808C400370838
:10063800C3000130C7070318C80A0030C8074808B4
:10064800803AFF0080307F02031D2C2BFF304702C9
:10065800031C2F2B302B3B2B7F3083120313C60038
:100668008030C5000030C4000030C300702B8312F6
:1006780003134808803AFF0080307F02031D462B91
:10068800013047020318492B4A2B562B003083129E
:100698000313C6000030C5000030C4000030C3009A
:1006A800BC01702B831203134708B7003708C20038
:1006B800FF30C305FF30C4057F30C5050030C605CF
:1006C800421C672B682B692BC5174208B70003101B
:1006D800370CB8003808C6003C08B7003708C6040D
:1006E8004608B2004508B1004408B0004308AF000E
:1006F8000800F80078080319822B832B972BF31F27
:10070800862B872B972B7009FA007109FB00720959
:10071800FC007309FD00FA0A0319FB0A0319FC0A15
:100728000319FD0A9F2B7308FD007208FC0071086D
:10073800FB007008FA007308720471047004031D4A
:10074800A62BA72BB02B0030F3000030F2000030AE
:10075800F1000030F000362C9630F4007408F900EF
:10076800C22B0130F4007408F90701300310FD0CA6
:10077800FC0CFB0CFA0CFF3E031DBA2BFE307D056A
:10078800031DC72BC82BB52BE42B0130F4007408CC
:10079800F9070130FA07003003180130FB07003071
:1007A80003180130FC07003003180130FD07013041
:1007B8000310FD0CFC0CFB0CFA0CFF3E031DDC2B9C
:1007C800FF307D05031DE92BEA2BC92BF62B0130E1
:1007D800F9020130F4000310FA0DFB0DFC0DFD0DBC
:1007E800F40BEF2BFC1BF92BFA2B002C02307902AF
:1007F8000318FF2B002CEB2B7918032C042C0C2C42
:10080800FF30FA05FF30FB057F30FC05FF30FD05A2
:100818000310F90C7908F400F501F601F701183016
:100828000310F40DF50DF60DF70DFF3E031D142C06
:100838007408FA047508FB047608FC047708FD04BC
:1008480078080319282C292C2E2CF31F2C2C2D2C3E
:100858002E2CFD177D08F3007C08F2007B08F100C0
:100868007A08F00008000310831203134B0D4C0D97
:10087800CD004D08D3005308031D432C442C4D2CA8
:100888000030CC000030CB000030CA000030C90076
:10089800B22C4908CD004A08CE004B08CF004C08BE
:1008A800D0001F300310D00CCF0CCE0CCD0CFF3E67
:1008B800031D562C4D08D1005108D200CB17FF302C
:1008C800C905FF30CA05FF30CB050030CC0596308E
:1008D800D302D31F702C712C8B2C5308803A973E6F
:1008E8000318772C782C792C442C01300310CC0C6D
:1008F800CB0CCA0CC90CFF3E031D7A2C0130CD006D
:100908004D08D307031D892C8A2C792CA22C203062
:100918005302031C902C912C9D2C442C0130CD00AB
:100928000310C90DCA0DCB0DCC0DCD0B942C013085
:10093800D3025308031DA12CA22C922C5208031990
:10094800A62CA72CB22CC909CA09CB09CC09C90AFB
:100958000319CA0A0319CB0A0319CC0A08000A1298
:100968008A11C1250A128A11831203139F14580889
:10097800B6005708B5005608B4005508B300403013
:10098800B2000030B1000030B0000030AF000A12F1
:100998008A111C200A128A11831203133208CC0010
:1009A8003108CB003008CA002F08C9000A128A1182
:1009B80037240A128A11831203134908D4005408F1
:1009C800DA0025305A02031CEA2CEB2CED2C0430FB
:1009D800880025305A020318F22CF32CFB2C19300E
:1009E8005A02031CF82CF92CFB2C02308800193011
:1009F8005A020318002D012DBB2C01308800BB2C96
:100A08000A128A110E280C1F0A2D0B2D372D9F183C
:100A18000E2D0F2D372D1E08A000A101A201A30144
:100A28002308F3002208F2002108F1002008F00052
:100A380000300A128A117D230A128A117308831260
:100A48000313D8007208D7007108D6007008D500C3
:100A5800193083120313A000A00B302D332D8312FD
:100A680003130C139F148C1D3A2D3B2D4B2D83160D
:100A780003131418402D412D472D83120313130817
:100A8800A0002008D90083125A0893008C11250869
:100A98008A00240E8300FE0E7E0E090083120313C3
:100AA800AE00AA01AB012608A800A9012808AC00DD
:100AB8002908AD002E1C612D622D682D2C08AA076F
:100AC8000318AB0A2D08AB0701300310AC0DAD0DB0
:100AD800FF3E031D692D0310AE0C2E08031D752D56
:100AE800762D5E2D2B08A7002A08A60008000130E5
:100AF8008316031788008316031305148312031340
:100B0800850183160317890183160313860183124F
:100B180003138601831603139601880183120313B6
:100B280088018316031389018312031389010800BE
:100B3800831603138715871285162430831203132F
:100B48009400831603139401831203138C118316E4
:100B580003138C1508008130831203139F0083163A
:100B680003139F019E01831203139E010C17831622
:100B780003130C170B178B1708000A128A117B2511
:100B88000A128A110A128A11AF250A128A110A1248
:0A0B98008A119C250A128A11080038
:04400E00F120FF3F5F
:00000001FF
