:020000040000FA
:060000000A128A110C280F
:10000800FE00030EF1000A08F2000A128A111528F0
:100018000A128A110F28F301F40183010A128A11C6
:1000280080288B1D182819282E280B1C1C281D28F1
:100038002E28831203130618222823282728013084
:10004800F0007008F40786182A282B282D2801307C
:10005800F4020B10831203138C1D33283428442810
:1000680083160313141839283A28402883120313D7
:100078001308F0007008F3007408831293008C11C1
:1000880072088A00710E8300FE0E7E0E0900831628
:1000980003178801831603130510831203138501C0
:1000A800831603178901033083160313860083120E
:1000B8000313860103308316031396008801831205
:1000C800031388018316031389018312031389011B
:1000D80008008316031387158712851624308312A8
:1000E80003139400831603139401831203138C11D2
:1000F800831603138C1508000A128A1190200A121D
:100108008A11C8308B000B147408831203138800FB
:1001180088280A128A110C280A128A114B200A12FE
:0E0128008A110A128A116D200A128A1108002B
:04400E00F120FF3F5F
:00000001FF
