:020000040000FA
:060000000A128A1110280B
:10000800FE00030E83120313A4000408A5000A08C7
:10001800A6000A128A15C52A0A128A111328831201
:100028000313E201E301E401E501E601E701E80168
:100038008313A0308400D4300A128A15DE200A12F5
:100048008A11831790308400B0300A128A15DE2096
:100058000A128A1183010A128A157C2D831203134E
:1000680033088039B8003808BD003308B8003807AD
:10007800B9003908C300B21F422843284428431452
:1000880043080319482849285828430A031D4D28BE
:100098004E2856280030B3000030B2000030B100BE
:1000A8000030B000B21760280030B3000030B20052
:1000B8000030B1000030B00037088039B800380887
:1000C800BD063708B8003807B9003908C200B61F9E
:1000D8006E286F287028421442080319742875285E
:1000E8008428420A031D79287A2882280030B7001C
:1000F8000030B6000030B5000030B400B6178C28C8
:100108000030B7000030B6000030B5000030B40051
:10011800420803199028912896284308031D95281A
:1001280096289F280030B3000030B2000030B1009C
:100138000030B000922B3008B8003808A700360805
:100148000A128A15BD210A128A118312031328087C
:10015800C9002708C8004808B800B901BA01BB019E
:100168003B08C1003A08C0003908BF003808BE0083
:100178004908B800B901BA01BB013B08C7003A08F1
:10018800C6003908C5003808C4003108B800380866
:10019800A70035080A128A15BD210A128A1183128E
:1001A80003132808C9002708C8004808B800B9017F
:1001B800BA01BB013808BE07390803110318013E0C
:1001C8000319E728BF073A0803110318013E03196A
:1001D800EE28C0073B0803110318013E0319F52850
:1001E800C1074908B800B901BA01BB013808C407FA
:1001F800390803110318013E03190329C5073A08F2
:1002080003110318013E03190A29C6073B08031105
:100218000318013E03191129C7073208B800380826
:10022800A70034080A128A15BD210A128A118312FE
:1002380003132808C9002708C8004808B800B901EE
:10024800BA01BB013808BE07390803110318013E7B
:1002580003192F29BF073A0803110318013E031990
:100268003629C0073B0803110318013E03193D292D
:10027800C1074908B800B901BA01BB013808C40769
:10028800390803110318013E03194B29C5073A0819
:1002980003110318013E03195229C6073B0803112D
:1002A8000318013E03195929C7070830B80003107D
:1002B800BE0DBF0DC00DC10DB80B5B293108B800CC
:1002C8003808A70034080A128A15BD210A128A11B3
:1002D800831203132808C9002708C8004808B80073
:1002E8004908B900BA01BB013808BE07390803112B
:1002F8000318013E03198129BF073A08031103189F
:10030800013E03198829C0073B0803110318013E61
:1003180003198F29C1073008B8003808A700350825
:100328000A128A15BD210A128A118312031328089A
:10033800C9002708C8004808B8004908B900BA0128
:10034800BB013808BE07390803110318013E031919
:10035800AE29BF073A0803110318013E0319B5294E
:10036800C0073B0803110318013E0319BC29C10744
:100378000830B8000310BE0DBF0DC00DC10DB80B7D
:10038800BE293008B8003808A70034080A128A15B0
:10039800BD210A128A11831203132808C9002708ED
:1003A800C8004808B8004908B900BA01BB013808B4
:1003B800BE07390803110318013E0319E429BF07D2
:1003C8003A0803110318013E0319EB29C0073B083B
:1003D80003110318013E0319F229C1073108B800B7
:1003E8003808A70036080A128A15BD210A128A1190
:1003F800831203132808C9002708C8004808B80052
:100408004908B900BA01BB013808C4073908031103
:100418000318013E0319112AC5073A0803110318E6
:10042800013E0319182AC6073B0803110318013EA9
:1004380003191F2AC7073208B8003808A70035086B
:100448000A128A15BD210A128A1183120313280879
:10045800C9002708C8004808B8004908B900BA0107
:10046800BB013808C407390803110318013E0319F2
:100478003E2AC5073A0803110318013E0319452A05
:10048800C6073B0803110318013E03194C2AC70786
:100498003208B8003808A70036080A128A15BD21A4
:1004A8000A128A11831203132808C9002708C800F2
:1004B8004808B8004908B900BA01BB010830031060
:1004C800B80DB90DBA0DBB0DFF3E031D632A3808E0
:1004D800C407390803110318013E0319742AC50714
:1004E8003A0803110318013E03197B2AC6073B0883
:1004F80003110318013E0319822AC7073E08B800F2
:100508003F08B9004008BA004108BB001830031082
:10051800BB0CBA0CB90CB80CFF3E031D8B2A38086B
:10052800C407390803110318013E03199C2AC5079B
:100538003A0803110318013E0319A32AC6073B080A
:1005480003110318013E0319AA2AC7070830B80087
:100558000310BE0DBF0DC00DC10DB80BAC2A43086A
:100568004207B800B901B90D3808823EC8003908F9
:100578000318013EFF3EC900DE2A0130B80003100F
:10058800C40DC50DC60DC70DB80BC32AC11FCD2A92
:10059800CE2ACF2A44140130B8000310BE0DBF0D77
:1005A800C00DC10DB80BD12AFF30C8070318C90AFE
:1005B800FF30C907C61FE12AE22AC12AC201C11FAA
:1005C800E62AE72A032BFF303E05B800FF303F0537
:1005D800B900FF304005BA007F304105BB003B0839
:1005E8003A04390438040319FA2AFB2AFE2AC201FC
:1005F800C20A032B441C012B022B032BFB2A4208A3
:100608000319072B082B392B0130C40700300318B6
:100618000130C507003003180130C6070030031841
:100628000130C707471C192B1A2B392B4408B8006F
:100638004508B9004608BA004708BB000130BC00AD
:100648003B0DBB0CBA0CB90CB80CBC0B242B3B08EB
:10065800C7003A08C6003908C5003808C400013088
:10066800C8070318C90A0030C9074908803AFF00BB
:1006780080307F02031D422BFF304802031C452BAC
:10068800462B512B7F3083120313C7008030C600DE
:100698000030C5000030C400862B831203134908BC
:1006A800803AFF0080307F02031D5C2B0130480236
:1006B80003185F2B602B6C2B003083120313C700C9
:1006C8000030C6000030C5000030C400BD01862BD4
:1006D800831203134808B8003808C300FF30C40564
:1006E800FF30C5057F30C6050030C705431C7D2B8C
:1006F8007E2B7F2BC6174308B8000310380CB900AF
:100708003908C7003D08B8003808C7044708B300CF
:100718004608B2004508B1004408B000080083123A
:10072800031351088039D200520883160313D800E6
:10073800831203135108D2005207D30053088316BB
:100748000313DF0083120313D01FAB2BAC2BAF2B8B
:10075800831603135F14831603135F080319B52B5D
:10076800B62BC92B5F0A031DBA2BBB2BC52B003038
:1007780083120313D1000030D0000030CF000030C6
:10078800CE008312D017D101D32B0030831203136C
:10079800D1000030D0000030CF000030CE004D082E
:1007A8008039D200520883160313D8068312031324
:1007B8004D08D2005207D300530883160313E000F4
:1007C80083120313CC1FE92BEA2BED2B831603139B
:1007D80060148316031360080319F32BF42B072CFA
:1007E800600A031DF82BF92B032C00308312031326
:1007F800CD000030CC000030CB000030CA0083129E
:10080800CC17CD01112C003083120313CD0000301A
:10081800CC000030CB000030CA004D084C044B041B
:100828004A04031D182C192C362C0030D100003036
:10083800D0000030CF000030CE008030D0047F30B0
:10084800D10483160313580883120313D2005208E5
:10085800D1045108CD005008CC004F08CB004E08F9
:10086800CA00322E831603135F08031D3C2C3D2C4F
:10087800482C003083120313CD000030CC00003028
:10088800CB000030CA00322E5F0883120313D20057
:10089800D3015308D500831603136008831203138A
:1008A8005202D400031CD50354087F3E8316031359
:1008B800D9008312031355080318013E003E83161E
:1008C8000313DA0083120313510883160313D700A6
:1008D80083120313500883160313D60083120313DD
:1008E8004F0883160313D500831203134E0883168B
:1008F8000313D400003083120313D1000030D0005A
:100908000030CF000030CE00003083160313DE0025
:100918000030DD000030DC000030DB00E0011A2D83
:1009280060080319982C992CC82C013083120313E2
:10093800D200031083160313D40DD50DD60DD70D91
:1009480083120313D20B9D2C0130D2000310CE0D5D
:10095800CF0DD00DD10DD20BAA2C83160313DE1F99
:10096800B62CB72CBA2C831203134E140130831201
:10097800D200031083160313DB0DDC0DDD0DDE0D35
:1009880083120313D20BBD2C83124D088316031355
:100998005702031DE52C831203134C088316031317
:1009A8005602031DE52C831203134B088316031309
:1009B8005502031DE52C831203134A0883160313FB
:1009C8005402031CE82CE92C122D5E178312031322
:1009D8004A0883160313D402831203134B08031C1B
:1009E8004B0FF72CFA2C83160313D502831203132B
:1009F8004C08031C4C0F012D042D83160313D6023B
:100A0800831203134D08031C4D0F0B2D0E2D831657
:100A18000313D702831203138316031301308312BF
:100A28000313D200520883160313E0071A3060023A
:100A3800031C1F2D202D942C5708560455045404CC
:100A48000319272D282D522D5B14522D0130D20069
:100A58000310CE0DCF0DD00DD10DD20B2C2D83163A
:100A68000313DE1F382D392D3C2D831203134E142A
:100A780001308312D200031083160313DB0DDC0D43
:100A8800DD0DDE0D83120313D20B3F2DFF308316CD
:100A98000313D9070318DA0AFF30DA07831203139E
:100AA800D01F572D582D2A2D83160313E001DE1F62
:100AB8005E2D5F2D8B2DFF305B0583120313D20053
:100AC800FF30831603135C0583120313D300FF3032
:100AD800831603135D0583120313D4007F30831636
:100AE80003135E0583120313D500550854045304F9
:100AF80052040319802D812D862D83160313E001DE
:100B0800E00A8B2D4E1C892D8A2D8B2D812D831665
:100B1800031360080319912D922DC72D01308312FC
:100B28000313CE07003003180130CF070030031835
:100B38000130D007003003180130D107511CA52D12
:100B4800A62DC72D4E08D2004F08D3005008D40058
:100B58005108D5000130D600550DD50CD40CD30C56
:100B6800D20CD60BB02D5508D1005408D00053082C
:100B7800CF005208CE00013083160313D90703189B
:100B8800DA0A0030DA07831603135A08803AFF009E
:100B980080307F02031DD22DFF305902031CD52D52
:100BA800D62DE62DFF3083160313D9000030DA0066
:100BB800003083120313D1000030D0000030CF0082
:100BC8000030CE00831603135A08803AFF008030A5
:100BD8007F02031DF12D013059020318F42DF52D64
:100BE800062E83160313D901DA010030831203138A
:100BF800D1000030D0000030CF000030CE00831686
:100C08000313D80183160313590883120313D20060
:100C1800520883160313DF005F1C132E142E182EA0
:100C280083120313D0171E2E7F3083120313D200B2
:100C38005208D005831603135F0883120313D200EA
:100C48000310520CD3005308D1008316031358081D
:100C580083120313D2005208D1042D2C0800383017
:100C680083120313C6004608C900B32F2530500667
:100C780003193F2E402E502E5008C6003508840018
:100C88008317361C8313460880000130B507031804
:100C9800B60A0030B607B32FCE01CF01CB01370813
:100CA80084000A128A150A200A128A110A128A1561
:100CB8000D210A128A11031C622E632EA32E8312A1
:100CC8000313CE01CF010A3083120313A7000030AB
:100CD800A8004F08AA004E08A9000A128A159621F2
:100CE8000A128A11831203132808CF002708CE009E
:100CF800370884000A128A150A200A128A11D03E7F
:100D0800C600FF3003180030C7004608CE07031896
:100D1800CF0A4708CF070130C6004608B70737088B
:100D280084000A128A150A200A128A110A128A15E0
:100D38000D210A128A110318A22EA32E672E013044
:100D480083120313B707FF30370784000A128A1586
:100D58000A200A128A11D000C600C7014708003AC3
:100D68000319B72EB32F4608003A0319C52F643A62
:100D78000319C22E0D3A0319C22EB32F4908840055
:100D880083130008CC00840A0008CD000230C60096
:100D98004608C907CD1FD12ED22EDB2E0330C60040
:100DA8004608CB04CC09CD09CC0A0319CD0AD001D9
:100DB800D00A5008C6004607013E84000A128A1568
:100DC8000A200A128A11C7000A128A150A200A1272
:100DD8008A11C80048084D02031DF42E47084C022A
:100DE8000318F72EF82EF92E032F0130C6004608F7
:100DF800D00705305006031D022F032FDD2E4E08A5
:100E08004F040319082F092F152F4B08033903190D
:100E18000E2F0F2F152FFF30CE070318CF0AFF30E4
:100E2800CF074F08803A803C031D1C2F4E08500204
:100E380003181F2F202F2C2F831203135008C600CE
:100E4800C7014608CE024708031CCF03CF02302F44
:100E580083120313CE01CF014E084F040319352F17
:100E6800362F512F2030C600350884008317361CD2
:100E78008313460880000130B5070318B60A00300E
:100E8800B607FF30CE070318CF0AFF30CF074E084A
:100E98004F04031D502F512F362F4B0803390319C8
:100EA800562F572F662F2D30C6003508840083171C
:100EB800361C8313460880000130B5070318B60AAC
:100EC8000030B6075008C6004608CA00AA2F0A30E4
:100ED800AF000030B0004A08C6004607013E840053
:100EE8000A128A150A200A128A11A7000A128A15FC
:100EF8000A200A128A11A8004D08AA004C08A90065
:100F08000A128A157F220A128A11831203132808EB
:100F1800B2002708B1000A128A1543220A128A1160
:100F2800831203132F08303EC7004708D00050082B
:100F3800C600350884008317361C831346088000D2
:100F48000130B5070318B60A0030B607FF30C600EF
:100F58004608CA074A0A031DB22FB32F6B2F013068
:100F6800B707FF30370784000A128A150A200A12C9
:100F78008A11C6004608D0005008031DC42FC52F8B
:100F88003A2E350884008317361C83138001080025
:100F980083120313B10002302C020318D42FD52F6B
:100FA800FC2F10303102031CDA2FDB2FDC2FFC2F33
:100FB8002C030319E02FE12FE72F80303104AF0015
:100FC8000030B000EC2FC0303104AF000030B0006A
:100FD8002F080A128A1521210A128A110D3083124C
:100FE8000313AE00FB30AD00AD0BF82FAE0BF82F9E
:020FF8000800EF
:10100000FF1B0A2883137F1883170008840A03191B
:10101000FF0A080008308A000408840A82070034A6
:10102000013400340A34003464340034E8340334C6
:1010300010342734253469342E342534693425346A
:10104000693456342034253469342E3425346934D7
:1010500025346934563420342534693443340D340E
:101060000A340034203453343134203420342034D2
:101070002034533432342034203420342034533458
:10108000333420340034253469342E342534693423
:10109000253469345634003425343334693400340B
:1011BC0064008001840A0406031900340406DF2845
:1011CC000B17831603138C160C160C1783120313B0
:1011DC008C128B1708008130831203139F00831627
:1011EC0003139F019E01831203139E0108008312B7
:1011FC000313A8008801080828048800270C031C86
:10120C008612031886160613861786130800831297
:10121C000313A800A7013A3028020318162917292E
:10122C001F2930302802031C1C291D291F29A70146
:10123C00A70A270C080083120313AB000D3083128E
:10124C000313AA00FB30A900A90B2A29AA0B2A29EF
:10125C0083120313A7012B080A128A15FD200A1208
:10126C008A15080083120313AB000D30831203138D
:10127C00AA00FB30A900A90B4129AA0B4129831212
:10128C000313A701A70A2B080A128A15FD200A12BC
:10129C008A15080003308316031788000330831661
:1012AC000313850083120313850183160317890129
:1012BC00831603138601831203138601831603130B
:1012CC009601880183120313880183160313890185
:1012DC0083120313890108000A128A15F1200A12DD
:1012EC008A150A128A1550210A128A150A128A15B1
:1012FC00E6200A128A150A128A1513220A128A1576
:10130C00003083120313B9000030B8002530B70049
:10131C008030B6000A128A1536230A128A15080084
:10132C0083120313AB01AC01271C9D299E29A42910
:10133C002908AB070318AC0A2A08AC0701300310C4
:10134C00A90DAA0DFF3E031DA52901300310A80C01
:10135C00A70CFF3E031DAC2927082804031DB72941
:10136C00B8299A292C08A8002B08A700080083127A
:10137C000313AF00AB01AC012708A900AA0129088F
:10138C00AD002A08AE002F1CCC29CD29D3292D085D
:10139C00AB070318AC0A2E08AC0701300310AD0DD7
:1013AC00AE0DFF3E031DD4290310AF0C2F08031DF7
:1013BC00E029E129C9292C08A8002B08A70008005E
:1013CC0083120313AF01012A2F082C0784002D0868
:1013DC0003182D0AFF000A128A1500200A128A151A
:1013EC000A128A1538210A128A1501308312031346
:1013FC00AE002E08AF072F082C0784002D08031809
:10140C002D0AFF000A128A1500200A128A15003ACA
:10141C00031D112A122AEA290800831203138801DA
:10142C00831603138801273083120313AD00F430A5
:10143C00AC00AC0B1F2AAD0B1F2A000032300A1275
:10144C008A1521210A128A1538300A128A1521218F
:10145C000A128A150C300A128A1521210A128A15D1
:10146C0001300A128A1521210A128A1506300A1235
:10147C008A1521210A128A150800831203132F08DA
:10148C00300403194A2A4B2A7A2AB401B40A592A7D
:10149C0001300310AF0DB00DFF3E031D4F2A01307C
:1014AC00B3003308B407B01F5C2A5D2A4E2A3008FB
:1014BC003202031D632A2F083102031C662A672A95
:1014CC006D2A2F08B1023008031CB203B20201309E
:1014DC000310B00CAF0CFF3E031D6E2A0130B4029A
:1014EC00031D792A7A2A5D2A3208B0003108AF0030
:1014FC00080083120313AC01AD012708280403195B
:10150C00882A892AC02AAE01AE0A972A0130031014
:10151C00A70DA80DFF3E031D8D2A0130AB002B0833
:10152C00AE07A81F9A2A9B2A8C2A01300310AC0DF7
:10153C00AD0DFF3E031D9C2A28082A02031DA82A74
:10154C0027082902031CAB2AAC2AB32A2708A902B4
:10155C002808031CAA03AA022C1401300310A80C9F
:10156C00A70CFF3E031DB42A0130AE02031DBF2A97
:10157C00C02A9B2A2D08A8002C08A70008000C1FC5
:10158C00C82AC92AF12A9F18CC2ACD2AF12A1E086A
:10159C00A000A101A201A3012308F3002208F2007C
:1015AC002108F1002008F00000300A128A15C2242C
:1015BC000A128A15730883160313A3007208A2007B
:1015CC007108A1007008A000013083120313A00061
:1015DC002008E7070C138C1EF42AF52A0C2B1A088A
:1015EC00A0002008E5002B306506031DFE2AFF2A0B
:1015FC00042B0130A0002008E4070C2B2D306506CD
:10160C00031D092B0A2B0C2B0130E4020C1E0F2B93
:10161C00102B2C2B831603132A08903E840083175F
:10162C0000088312031399001030831603132A0643
:10163C002B04031D222B232B262BAA01AB012C2BB5
:10164C000130AA070318AB0A0030AB078312260837
:10165C008A0025088400240E8300FE0E7E0E0900ED
:10166C0083160313181398161812181183160317E0
:10167C00871183120313981718163608BA00370807
:10168C00BB003808BC003908BD0006300310BA0D89
:10169C00BB0DBC0DBD0DFF3E031D4C2B3D08AA0020
:1016AC003C08A9003B08A8003A08A7003608BE0071
:1016BC003708BF003808C0003908C10006300310D5
:1016CC00BE0DBF0DC00DC10DFF3E031D652B0030BF
:1016DC00C2001230C3007A30C4000030C5003E088E
:1016EC00C2023F08031C3F0F7C2B7D2BC30240081A
:1016FC00031C400F822B832BC4024108031C410F97
:10170C00882B892BC5024508AE004408AD00430860
:10171C00AC004208AB000A128A1525240A128A155D
:10172C00831203132A08C9002908C8002808C70017
:10173C002708C60046088316031399008B170B174E
:10174C008C160C160800031083120313590D5A0D36
:10175C00DB005B08E1006108031DB52BB62BBF2B2A
:10176C000030DA000030D9000030D8000030D7004B
:10177C00242C5708DB005808DC005908DD005A08F7
:10178C00DE001F300310DE0CDD0CDC0CDB0CFF3E2E
:10179C00031DC82B5B08DF005F08E000D917FF3082
:1017AC00D705FF30D805FF30D9050030DA05963063
:1017BC00E102E11FE22BE32BFD2B6108803A973EFF
:1017CC000318E92BEA2BEB2BB62B01300310DA0CA8
:1017DC00D90CD80CD70CFF3E031DEC2B0130DB00D1
:1017EC005B08E107031DFB2BFC2BEB2B142C20308F
:1017FC006102031C022C032C0F2CB62B0130DB00D6
:10180C000310D70DD80DD90DDA0DDB0B062C0130DA
:10181C00E1026108031D132C142C042C600803191D
:10182C00182C192C242CD709D809D909DA09D70A6C
:10183C000319D80A0319D90A0319DA0A0800831202
:10184C000313B101AA1F2B2C2C2C392CA709A80986
:10185C00A909AA09A70A0319A80A0319A90A0319AD
:10186C00AA0AB101B10AAE1F3C2C3D2C4C2CAB0981
:10187C00AC09AD09AE09AB0A0319AC0A0319AD0AE0
:10188C000319AE0A0130AF002F08B1060030B500C5
:10189C000030B4000030B3000030B2002A08290434
:1018AC002804270403195B2C5C2CA92CB001B00A6A
:1018BC006C2C0130AF000310A70DA80DA90DAA0DBB
:1018CC00AF0B612C0130AF002F08B007AA1F6F2C93
:1018DC00702C5F2C0130AF000310B20DB30DB40DA2
:1018EC00B50DAF0B722C2A082E02031D872C29086C
:1018FC002D02031D872C28082C02031D872C27087A
:10190C002B02031C8A2C8B2C9A2C2708AB02280840
:10191C00031C280FAC022908031C290FAD022A084E
:10192C00031C2A0FAE02321401300310AA0CA90CAE
:10193C00A80CA70CFF3E031D9B2C0130B002031D0D
:10194C00A82CA92C702C31080319AD2CAE2CB92C59
:10195C00B209B309B409B509B20A0319B30A0319D8
:10196C00B40A0319B50A3508AA003408A9003308CB
:10197C00A8003208A7000800F80078080319C72C43
:10198C00C82CDC2CF31FCB2CCC2CDC2C7009FA00D3
:10199C007109FB007209FC007309FD00FA0A0319B6
:1019AC00FB0A0319FC0A0319FD0AE42C7308FD0059
:1019BC007208FC007108FB007008FA0073087204CE
:1019CC0071047004031DEB2CEC2CF52C0030F3008F
:1019DC000030F2000030F1000030F0007B2D96302A
:1019EC00F4007408F900072D0130F4007408F907AD
:1019FC0001300310FD0CFC0CFB0CFA0CFF3E031D1C
:101A0C00FF2CFE307D05031D0C2D0D2DFA2C292DE0
:101A1C000130F4007408F9070130FA07003003189C
:101A2C000130FB07003003180130FC0700300318AD
:101A3C000130FD0701300310FD0CFC0CFB0CFA0C03
:101A4C00FF3E031D212DFF307D05031D2E2D2F2D57
:101A5C000E2D3B2D0130F9020130F4000310FA0D6C
:101A6C00FB0DFC0DFD0DF40B342DFC1B3E2D3F2D01
:101A7C00452D023079020318442D452D302D79184F
:101A8C00482D492D512DFF30FA05FF30FB057F30D5
:101A9C00FC05FF30FD050310F90C7908F400F50185
:101AAC00F601F70118300310F40DF50DF60DF70DD6
:101ABC00FF3E031D592D7408FA047508FB047608C3
:101ACC00FC047708FD04780803196D2D6E2D732D19
:101ADC00F31F712D722D732DFD177D08F3007C08FB
:101AEC00F2007B08F1007A08F00008000A128A154F
:101AFC0072210A128A15831203139F14AC01003051
:101B0C000A128A11CC270A128A1523308312031366
:101B1C00AC008030AD000A128A15E6210A128A1533
:101B2C0083160313230883120313B70083160313BE
:101B3C00220883120313B6008316031321088312A1
:101B4C000313B50083160313200883120313B40088
:101B5C004330B300FA30B2000030B1000030B000B6
:101B6C000A128A1132200A128A15831203133308BF
:101B7C00D1003208D0003108CF003008CE004330FD
:101B8C00CD007F30CC000030CB000030CA000A12F0
:101B9C008A1193230A128A15831203134D08DA0053
:101BAC004C08D9004B08D8004A08D7000A128A15ED
:101BBC00A9230A128A15831203135808E300570845
:101BCC00E2006708031DEB2DEC2D802EE6010A3098
:101BDC00AF000030B0006308B2006208B1000A1216
:101BEC008A1543220A128A15831203132F088316AF
:101BFC000313E100831203136608A73E84008316C7
:101C0C0003136108831380000A3083120313A700A7
:101C1C000030A8006308AA006208A9000A128A15FD
:101C2C007F220A128A15831203132808E30027085F
:101C3C00E200013083160313E100610883120313E1
:101C4C00E60703306602031C2C2E2D2EED2DC03022
:101C5C00B5000030B600343083160313E100610880
:101C6C0083120313B700831603132908E200E30160
:101C7C00620883120313B8008316031363088312DC
:101C8C000313B900831603132808E400E501640864
:101C9C0083120313BA00831603136508831203130C
:101CAC00BB00831603132708E600E70166088312BE
:101CBC000313BC0083160313670883120313BD00C0
:101CCC000A128A1133260A128A1583120313AC01E5
:101CDC00AC0A00300A128A11CC270A128A15C030BD
:101CEC0083120313AC000030AD000A128A15E621F2
:101CFC000A128A158312031367080319862E872E7E
:101D0C001B2FE6010A30AF000030B0006308B200B0
:101D1C006208B1000A128A1543220A128A1583122C
:101D2C0003132F0883160313E100831203136608B1
:101D3C00A43E8400831603136108831380000A30C9
:101D4C0083120313A7000030A8006308AA006208DE
:101D5C00A9000A128A157F220A128A15831203130C
:101D6C002808E3002708E200013083160313E10082
:101D7C00610883120313E60703306602031CC72EA7
:101D8C00C82E882EC030B5000030B6003430831613
:101D9C000313E100610883120313B70083160313C6
:101DAC002608E200E301620883120313B8008316CD
:101DBC000313630883120313B90083160313250856
:101DCC00E400E501640883120313BA0083160313BD
:101DDC00650883120313BB00831603132408E60063
:101DEC00E701660883120313BC008316031367080C
:101DFC0083120313BD000A128A1133260A128A15A4
:101E0C0083120313AC01AC0A06300A128A11CC27D8
:101E1C000A128A15C03083120313AC000030AD00D7
:101E2C000A128A15E6210A128A15AC3083120313A2
:101E3C00B5000030B6003D3083160313E100610895
:101E4C0083120313B700640883160313E200E30143
:101E5C00620883120313B8008316031363088312FA
:101E6C000313B9000A128A1133260A128A15831237
:101E7C000313AC01AC0A0C300A128A11CC270A12DB
:101E8C008A15AC3083120313AC000030AD000A127B
:101E9C008A15E6210A128A15903083120313B500B5
:101EAC000130B6000B3083160313E1006108831276
:101EBC000313B700831603132908E200E301620839
:101ECC0083120313B80083160313630883120313DE
:101EDC00B900831603132808E400E5016408831293
:101EEC000313BA0083160313650883120313BB0094
:101EFC00831603132708E600E70166088312031311
:101F0C00BC0083160313670883120313BD008316EA
:101F1C0003132608E800E901680883120313BE00C6
:101F2C0083160313690883120313BF00831603136C
:101F3C002508EA00EB016A0883120313C00083161C
:101F4C0003136B0883120313C100831603132408B5
:101F5C00EC00ED016C0883120313C200831603130B
:101F6C006D0883120313C300640883160313EE0079
:101F7C00EF016E0883120313C400831603136F085A
:101F8C0083120313C5000A128A1133260A128A150A
:101F9C00831203139F18D32FD42F962D6708831603
:101FAC000313E100E10DE10D831203131F088316E7
:101FBC0003136106C3396106831203139F0067087C
:101FCC000319E92FEA2FF22FFF3083160313E100D8
:101FDC00610883120313E7000F3083160313E1002B
:101FEC00E10BF62FF92F831203139F14962D0A126F
:041FFC008A1110280E
:04400E00F120FF3F5F
:00000001FF
