:020000040000FA
:060000000A128A110E280D
:10000800FE00030E83120313B4000A08B5000A1297
:100018008A15E32C0A128A11112883135930FD001E
:100028000B30FE003C30FF00493084000A128A156C
:1000380050230A128A11D2308400EB300A128A1532
:100048000F230A128A11D901FB0183010A128A11AE
:10005800B62E831203134208803983160313A000B7
:100068002008A50083120313420883160313A00077
:100078002007A1002108AB0083120313C11F4528E4
:1000880046284928831603132B14831603132B08B9
:1000980003194F28502862282B0A031D5428552875
:1000A8005F28003083120313C2000030C100003003
:1000B800C0000030BF008312C1176C2800308312C3
:1000C8000313C2000030C1000030C0000030BF0080
:1000D8004608803983160313A0002008A50683125A
:1000E8000313460883160313A0002007A100210864
:1000F800A60083120313C51F822883288628831627
:100108000313261483160313260803198C288D2835
:100118009F28260A031D912892289C2800308312C4
:100128000313C6000030C5000030C4000030C3000F
:100138008312C517A928003083120313C6000030A4
:10014800C5000030C4000030C3008316031326081E
:100158000319AF28B028B5282B08031DB428B528E3
:10016800C028003083120313C2000030C1000030E1
:10017800C0000030BF002D2C831203133F088316E4
:100188000313A000200883120313B60045080A12BF
:100198008A15F0230A128A1183120313370883166B
:1001A8000313B10083120313360883160313B00038
:1001B8003008A000A101A201A3012308AA00220877
:1001C800A9002108A8002008A7003108A000A10163
:1001D800A201A3012308AF002208AE002108AD0048
:1001E8002008AC0083120313400883160313A000F1
:1001F800200883120313B60044080A128A15F02354
:100208000A128A1183120313370883160313B100E5
:1002180083120313360883160313B0003008A000B6
:10022800A101A201A3012008A707210803110318AF
:10023800013E03192029A807220803110318013ECB
:1002480003192729A907230803110318013E0319D5
:100258002E29AA073108A000A101A201A3012008A4
:10026800AC07210803110318013E03193C29AD0707
:10027800220803110318013E03194329AE07230876
:1002880003110318013E03194A29AF078312031308
:10029800410883160313A000200883120313B60035
:1002A80043080A128A15F0230A128A1183120313CB
:1002B800370883160313B100831203133608831615
:1002C8000313B0003008A000A101A201A301200877
:1002D800A707210803110318013E03197429A80769
:1002E800220803110318013E03197B29A9072308D3
:1002F80003110318013E03198229AA073108A00037
:10030800A101A201A3012008AC07210803110318C9
:10031800013E03199029AD07220803110318013E75
:1003280003199729AE07230803110318013E03197F
:100338009E29AF070830A0000310A70DA80DA90D2E
:10034800AA0DA00BA02983120313400883160313D8
:10035800A000200883120313B60043080A128A1566
:10036800F0230A128A118312031337088316031322
:10037800B10083120313360883160313B000300844
:10038800A0003108A100A201A3012008A7072108A5
:1003980003110318013E0319D229A80722080311E3
:1003A8000318013E0319D929A907230803110318C3
:1003B800013E0319E029AA07831203133F08831695
:1003C8000313A000200883120313B60044080A127E
:1003D8008A15F0230A128A11831203133708831629
:1003E8000313B10083120313360883160313B000F6
:1003F8003008A0003108A100A201A3012008A70726
:10040800210803110318013E03190B2AA807220823
:1004180003110318013E0319122AA907230803111F
:100428000318013E0319192AAA070830A00003106F
:10043800A70DA80DA90DAA0DA00B1B2A8312031343
:100448003F0883160313A000200883120313B60085
:1004580043080A128A15F0230A128A118312031319
:10046800370883160313B100831203133608831663
:100478000313B0003008A0003108A100A201A301B5
:100488002008A707210803110318013E03194D2A64
:10049800A807220803110318013E0319542AA907C3
:1004A800230803110318013E03195B2AAA078312C4
:1004B8000313400883160313A000200883120313B4
:1004C800B60045080A128A15F0230A128A11831207
:1004D8000313370883160313B10083120313360876
:1004E80083160313B0003008A0003108A100A20150
:1004F800A3012008AC07210803110318013E0319C2
:10050800862AAD07220803110318013E03198D2A14
:10051800AE07230803110318013E0319942AAF07F5
:1005280083120313410883160313A00020088312C3
:100538000313B60044080A128A15F0230A128A1116
:1005480083120313370883160313B10083120313AE
:10055800360883160313B0003008A0003108A10044
:10056800A201A3012008AC07210803110318013ECA
:100578000319BF2AAD07220803110318013E031906
:10058800C62AAE07230803110318013E0319CD2A12
:10059800AF0783120313410883160313A000200832
:1005A80083120313B60045080A128A15F0230A12AB
:1005B8008A1183120313370883160313B1008312B9
:1005C8000313360883160313B0003008A00031085F
:1005D800A100A201A30108300310A00DA10DA20DD6
:1005E800A30DFF3E031DF02A2008AC0721080311C4
:1005F8000318013E0319012BAD0722080311031844
:10060800013E0319082BAE07230803110318013E06
:1006180003190F2BAF072708A0002808A1002908F5
:10062800A2002A08A30018300310A30CA20CA10CE6
:10063800A00CFF3E031D182B2008AC07210803114E
:100648000318013E0319292BAD07220803110318CB
:10065800013E0319302BAE07230803110318013E8E
:100668000319372BAF070830A0000310A70DA80DFA
:10067800A90DAA0DA00B392B2B082607A000A10154
:10068800A10D2008823EB00021080318013EFF3E5C
:10069800B1006B2B0130A0000310AC0DAD0DAE0DF9
:1006A800AF0DA00B502BAA1F5A2B5B2B5C2B2C14C5
:1006B8000130A0000310A70DA80DA90DAA0DA00BCD
:1006C8005E2BFF30B0070318B10AFF30B107AE1F29
:1006D8006E2B6F2B4E2BA601AA1F732B742B902BFE
:1006E800FF302705A000FF302805A100FF302905AD
:1006F800A2007F302A05A300230822042104200435
:100708000319872B882B8B2BA601A60A902B2C1C50
:100718008E2B8F2B902B882B26080319942B952B27
:10072800C62B0130AC07003003180130AD0700308C
:1007380003180130AE07003003180130AF072F1C33
:10074800A62BA72BC62B2C08A0002D08A1002E082D
:10075800A2002F08A3000130A400230DA30CA20CB3
:10076800A10CA00CA40BB12B2308AF002208AE00EB
:100778002108AD002008AC000130B0070318B10A09
:100788000030B1073108803AFF0080307F02031D36
:10079800CF2BFF303002031CD22BD32BDE2B7F3024
:1007A80083160313AF008030AE000030AD00003078
:1007B800AC00132C831603133108803AFF008030F5
:1007C8007F02031DE92B013030020318EC2BED2BBF
:1007D800F92B003083160313AF000030AE00003051
:1007E800AD000030AC00A501132C831603133008AC
:1007F800A0002008AB00FF30AC05FF30AD057F300E
:10080800AE050030AF052B1C0A2C0B2C0C2CAE1798
:100818002B08A0000310200CA1002108AF00250818
:10082800A0002008AF042F0883120313C200831608
:1008380003132E0883120313C100831603132D0814
:1008480083120313C000831603132C0883120313A7
:10085800BF0008008316031335088039BA003A0828
:10086800C2003508BA003A07BB003B08C400B41FF1
:100878003E2C3F2C402C441444080319442C452C8E
:10088800552C440A031D492C4A2C522C0030B50023
:100898000030B4000030B3000030B200B417B50126
:1008A8005D2C0030B5000030B4000030B3000030DB
:1008B800B20039088039BA003A08C3004308420632
:1008C8000319672C682C692C42173908BA003A07B3
:1008D800BB003B08C300B81F722C732C742C431444
:1008E80043080319782C792C892C430A031D7D2C85
:1008F8007E2C862C0030B9000030B8000030B700DC
:100908000030B600B817B901912C0030B90000309A
:10091800B8000030B7000030B6004408430203189E
:10092800962C972CDB2C421F9A2C9B2C9F2C8030CA
:10093800BA003A08C2064408BA003A08C500430893
:10094800BA003A08C4004508BA003A08C300320899
:10095800BA003A08C5003608BA003A08B200450895
:10096800BA003A08B6003308BA003A08C500370892
:10097800BA003A08B3004508BA003A08B700340884
:10098800BA003A08C5003808BA003A08B400450861
:10099800BA003A08B8003508BA003A08C50039085C
:1009A800BA003A08B5004508BA003A08B900C501C6
:1009B8004308BA00BB013B08BD0044083A02BC002A
:1009C800031CBD033D08803AFF0080307F02031DF1
:1009D800EF2C1A303C02031CF22CF32C302D83161A
:1009E80003133508340433043204031DFC2CFE2C95
:1009F8000130FF2C0030BA003A08C5000030B500BD
:100A08000030B4000030B3000030B2004308BA0030
:100A18003A08C400382D451C122D132D1C2D4508ED
:100A2800BA0003103A0C0138BB003B08C5001E2D64
:100A38000310C50C321C212D222D232DC517013082
:100A4800BA00350DB50CB40CB30CB20CBA0B252D8D
:100A58000130BA003A08C407831603134308440256
:100A6800031C372D382D0F2D421B3B2D3C2D872D78
:100A78004408031D402D412D4A2D0030B50000309B
:100A8800B4000030B3000030B200B52E3608B2070B
:100A9800370803110318013E0319532DB30738080B
:100AA80003110318013E03195A2DB407390803111D
:100AB8000318013E0319612DB507351C642D652DFA
:100AC8003B2E451C682D692D722D4508BA00031070
:100AD8003A0C0138BB003B08C500742D0310C50C47
:100AE800321C772D782D792DC5170130BA00350DB8
:100AF800B50CB40CB30CB20CBA0B7B2D0130BA0098
:100B08003A08C4073B2E3508803AFF003908803A76
:100B18007F02031D992D38083402031D992D3708CB
:100B28003302031D992D3608320203189C2D9D2D82
:100B3800F52DFF30BA00FF30BB00FF30BC00FF309E
:100B4800BD003608BE003708BF003808C0003908A5
:100B5800C1003208BE023308031C330FB42DB52D73
:100B6800BF023408031C340FBA2DBB2DC002350850
:100B7800031C350FC02DC12DC1023E08BA073F081E
:100B880003183F0FC82DC92DBB0740080318400F95
:100B9800CE2DCF2DBC0741080318410ABD073D08DB
:100BA800B5003C08B4003B08B3003A08B2008030F6
:100BB800BA003A08C206C509C50A4508031DE52D4D
:100BC800E62D032E0130B207003003180130B307B9
:100BD800003003180130B407003003180130B5079E
:100BE800032E3608B2023708031C370FB302380841
:100BF800031C380FB4023908031C390FB502350835
:100C0800340433043204031D0A2E0B2E372E4508F4
:100C1800031D0F2E102E372E0030B5000030B40003
:100C28000030B3000030B200B52E0130BA00031016
:100C3800B20DB30DB40DB50DBA0B1B2EC51F252E65
:100C4800262E272E3214451C2A2E2B2E2E2E031428
:100C5800C50D302E0310C50D44080319342E352E4A
:100C6800372E0130C402B41F3A2E3B2E192EC30171
:100C7800C51F3F2E402E4E2E45087F390319452E9D
:100C8800462E492EC301C30A4E2E321C4C2E4D2E21
:100C98004E2E462E43080319522E532E872E01300E
:100CA800B207003003180130B307003003180130D1
:100CB800B407003003180130B507351C642E652EC3
:100CC800872E3208BA003308BB003408BC00350848
:100CD800BD000130BE003D0DBD0CBC0CBB0CBA0CF8
:100CE800BE0B6F2E3D08B5003C08B4003B08B300AE
:100CF8003A08B200440A0319822E832E872E013047
:100D0800BA003A08C407440A03198B2E8C2E912E78
:100D18004408031D902E912E9F2E0030B500003000
:100D2800B4000030B3000030B2004408031D9D2E0B
:100D38009E2E9F2EC201441CA22EA32EA52EB417B0
:100D4800A92E7F30BA003A08B4054408BA00031047
:100D58003A0CBB003B08B500C21FB32EB42EB52E0B
:100D6800B51708000A128A155F230A128A1183121E
:100D780003139F14BB0101300A128A1576240A1244
:100D88008A110B3083120313BB008030BC000A1297
:100D98008A1519240A128A1183120313BB0106301B
:100DA8000A128A1576240A128A1110308312031344
:100DB800BB008030BC000A128A1519240A128A1155
:100DC80083120313BB010B300A128A1576240A1208
:100DD8008A11153083120313BB008030BC000A123D
:100DE8008A1519240A128A11831603135608031D3B
:100DF800FE2EFF2E892F550883120313C600831673
:100E08000313540883120313C500831603135308EE
:100E180083120313C40083160313520883120313A7
:100E2800C3004230C200C830C1000030C0000030EA
:100E3800BF000A128A112D200A128A118312031385
:100E4800420883160313B90083120313410883165B
:100E58000313B80083120313400883160313B70063
:100E6800831203133F0883160313B6003F30B500FF
:100E78000030B4000030B3000030B2000A128A110A
:100E88002E240A128A11831603133508C900340860
:100E9800C8003308C7003208C6000A128A15B025F0
:100EA8000A128A11831603134708D1004608D00096
:100EB8001A30CF004F0883120313C400831603139C
:100EC800510883120313C6008316031350088312B4
:100ED8000313C500D7300A128A15FE260A128A1192
:100EE80083120313BB01BB0A01300A128A15762448
:100EF8000A128A11D73083120313BB000030BC00DA
:100F08000A128A1519240A128A11831203139F18C8
:100F18008E2F8F2FF82E831603135608CF00CF0D70
:100F2800CF0D831203131F08831603134F06C3390B
:100F38004F06831203139F008316031356080319E1
:100F4800A62FA72FAB2FFF30CF004F08D6000F30AA
:100F580083160313CF00CF0BAF2FB22F83120313C7
:100F68009F14F82E0A128A110E2883120313BC014B
:100F7800BD01360837040319C22FC32FFA2FBB014E
:100F8800BB0AD12F01300310B60DB70DFF3E031D6C
:100F9800C72F0130BA003A08BB07B71FD42FD52F87
:100FA800C62F01300310BC0DBD0DFF3E031DD62F0B
:100FB80037083902031DE22F36083802031CE52FD3
:100FC800E62FED2F3608B8023708031CB903B9021B
:100FD8003C1401300310B70CB60CFF3E031DEE2F76
:100FE8000130BB02031DF92FFA2FD52F3D08B7009A
:060FF8003C08B6000800F1
:10100000FF1B0A2883137F1883170008840A03191B
:10101000FF0A080008308A000408840A82070034A6
:10102000013400340A34003464340034E8340334C6
:1010300010342734203453343134203400342034F5
:101040005334323420340034203453343334203495
:0810500000342534693400343A
:10161E0064008001840A0406031900340406102BAA
:10162E00C0308B004030831603138C0040308C008A
:10163E0008008130831203139F00831603139F014A
:10164E009E01831203139E01080083120313B70039
:10165E008801080837048800360C031C861203180C
:10166E00861606138617861308003F3406345B343D
:10167E004F3466346D347D3407347F346F347734B1
:10168E007C3439345E34793471347E088A007F08B4
:10169E0082000A128A154C230A128A158000840AC7
:1016AE0004087D0603190034FF0A0319FE0A502BA5
:1016BE000A128A1520230A128A150A128A15C823BD
:1016CE000A128A150A128A1517230A128A150A1285
:1016DE008A1546240A128A15080083120313BA00CB
:1016EE000D3083120313B900FB30B800B80B7D2BFD
:1016FE00B90B7D2B83120313B6013A080A128A1511
:10170E002C230A128A15080083120313BA000D3017
:10171E0083120313B900FB30B800B80B942BB90B2E
:10172E00942B83120313B601B60A3A080A128A15CD
:10173E002C230A128A150800F401F501701CA82B3F
:10174E00A92BAF2B7208F4070318F50A7308F507D7
:10175E0001300310F20DF30DFF3E031DB02B0130CF
:10176E000310F10CF00CFF3E031DB72B7008710433
:10177E00031DC22BC32BA52B7508F1007408F000B6
:10178E0008000330831603178800033083160313F3
:10179E0085008312031385018316031789018316AF
:1017AE000313860183120313860183160313960116
:1017BE008701831203138701831603138801831293
:1017CE0003138801831603138901831203138901FE
:1017DE00080083120313BE00BA01BB013608B8001D
:1017EE00B9013808BC003908BD003E1CFF2B002C87
:1017FE00062C3C08BA070318BB0A3D08BB0701308C
:10180E000310BC0DBD0DFF3E031D072C0310BE0CB7
:10181E003E08031D132C142CFC2B3B08B7003A0872
:10182E00B600080083120313BE01342C3E083B079A
:10183E0084003C0803183C0AFF000A128A15002097
:10184E000A128A150A128A158B230A128A1501307A
:10185E0083120313BD003D08BE073E083B078400FC
:10186E003C0803183C0AFF000A128A1500200A12CF
:10187E008A15003A031D442C452C1D2C080083129A
:10188E000313880183160313880127308312031371
:10189E00BC00F430BB00BB0B522CBC0B522C000016
:1018AE0032300A128A1574230A128A1538300A1237
:1018BE008A1574230A128A150C300A128A1574239B
:1018CE000A128A1501300A128A1574230A128A1511
:1018DE0006300A128A1574230A128A15080083121A
:1018EE000313C00002303B0203187E2C7F2CA62C63
:1018FE0010304002031C842C852C862CA62C3B0316
:10190E0003198A2C8B2C912C80304004BE000030A1
:10191E00BF00962CC0304004BE000030BF003E0811
:10192E000A128A1574230A128A150D3083120313B4
:10193E00BD00FB30BC00BC0BA22CBD0BA22C0800C2
:10194E00831203133E083F040319AE2CAF2CDE2C7A
:10195E00C301C30ABD2C01300310BE0DBF0DFF3EE7
:10196E00031DB32C0130C2004208C307BF1FC02C99
:10197E00C12CB22C3F084102031DC72C3E08400269
:10198E00031CCA2CCB2CD12C3E08C0023F08031CD2
:10199E00C103C10201300310BF0CBE0CFF3E031D7C
:1019AE00D22C0130C302031DDD2CDE2CC12C4108CC
:1019BE00BF004008BE0008000C1FE62CE72C402D8F
:1019CE009F18EA2CEB2C402D1E08B2003208D900CD
:1019DE000530F2000030F3005908B200B3013208AE
:1019EE00F0003308F1000A128A15A3230A128A1591
:1019FE007108F9007008F800FF30F6000030F700AB
:101A0E000A128A1547250A128A15760883120313BD
:101A1E00A4007708A5000030A51BFF30A600A70084
:101A2E0001300A128A1542260A128A1583120313EE
:101A3E00270883160313D500831203132608831673
:101A4E000313D40083120313250883160313D30044
:101A5E0083120313240883160313D200013083125A
:101A6E000313B200320883160313D607831203132F
:101A7E000C1335088A00340E8300FE0E7E0E09000C
:101A8E0083120313A101F71F4D2D4E2D552DF6096F
:101A9E00F709F60A0319F70AA101A10AF91F582D31
:101AAE00592D622DF809F909F80A0319F90A0130BE
:101ABE00FA007A08A106A201A30176087704031999
:101ACE00692D6A2DA12DA001A00A782D01300310D9
:101ADE00F60DF70DFF3E031D6E2D0130FA007A084C
:101AEE00A007F71F7B2D7C2D6D2D01300310A20D4D
:101AFE00A30DFF3E031D7D2D77087902031D892D51
:101B0E0076087802031C8C2D8D2D942D7608F80204
:101B1E007708031CF903F902221401300310F70CA5
:101B2E00F60CFF3E031D952D0130A002031DA02DC6
:101B3E00A12D7C2D21080319A52DA62DAB2DA209B3
:101B4E00A309A20A0319A30A2308F7002208F60024
:101B5E000800031083160313480D490DCA004A08E6
:101B6E0083120313C8004808031DBE2DBF2DCA2DB6
:101B7E00003083160313C9000030C8000030C700C0
:101B8E000030C600412E831603134608CA004708CC
:101B9E00CB004808CC004908CD001F300310CD0CF7
:101BAE00CC0CCB0CCA0CFF3E031DD52D4A08CE0023
:101BBE004E0883120313C70083160313C817FF3092
:101BCE00C605FF30C705FF30C8050030C905963081
:101BDE0083120313C802C81FF52DF62D142E4808C4
:101BEE00803A973E0318FC2DFD2DFE2DBF2D0130A2
:101BFE00031083160313C90CC80CC70CC60CFF3E8A
:101C0E00031DFF2D0130CA004A0883120313C807B3
:101C1E00031D122E132EFE2D2F2E20304802031CD4
:101C2E00192E1A2E2A2EBF2D013083160313CA0029
:101C3E000310C60DC70DC80DC90DCA0B1F2E0130DE
:101C4E0083120313C8024808031D2E2E2F2E1B2E9F
:101C5E0047080319332E342E412E83160313C6095B
:101C6E00C709C809C909C60A0319C70A0319C80A48
:101C7E000319C90A080083120313AC002C080319B8
:101C8E00492E4A2E5E2EA71F4D2E4E2E5E2E240955
:101C9E00AE002509AF002609B0002709B100AE0A33
:101CAE000319AF0A0319B00A0319B10A662E2708E1
:101CBE00B1002608B0002508AF002408AE002708A2
:101CCE00260425042404031D6D2E6E2E772E00305F
:101CDE00A7000030A6000030A5000030A400FD2EA5
:101CEE009630A8002808AD00892E0130A8002808DB
:101CFE00AD0701300310B10CB00CAF0CAE0CFF3EB3
:101D0E00031D812EFE303105031D8E2E8F2E7C2E4F
:101D1E00AB2E0130A8002808AD070130AE07003009
:101D2E0003180130AF07003003180130B007003040
:101D3E0003180130B10701300310B10CB00CAF0C19
:101D4E00AE0CFF3E031DA32EFF303105031DB02E3A
:101D5E00B12E902EBD2E0130AD020130A800031021
:101D6E00AE0DAF0DB00DB10DA80BB62EB01BC02E23
:101D7E00C12EC72E02302D020318C62EC72EB22E2C
:101D8E002D18CA2ECB2ED32EFF30AE05FF30AF0549
:101D9E007F30B005FF30B1050310AD0C2D08A80043
:101DAE00A901AA01AB0118300310A80DA90DAA0DA7
:101DBE00AB0DFF3E031DDB2E2808AE042908AF0431
:101DCE002A08B0042B08B1042C080319EF2EF02EAC
:101DDE00F52EA71FF32EF42EF52EB1173108A700FE
:101DEE003008A6002F08A5002E08A40008008316B0
:101DFE000313A8004530A0002008A300E52F2530CE
:101E0E00290603190B2F0C2F182F2908A0002808BC
:101E1E0084002008831380000130A0002008A8074A
:101E2E00E52FA401013083120313C407FF304407CA
:101E3E0084000A128A150A200A128A1583160313C1
:101E4E00A900A000A1012108003A03192F2FE52FA8
:101E5E002008003A0319FB2F643A03193A2F0D3A62
:101E6E0003193A2FE52F2308840083130008A600D8
:101E7E00840A0008A7000230A0002008A307A71FAD
:101E8E00492F4A2F532F0330A0002008A404A6097F
:101E9E00A709A60A0319A70AA901A90A2908A000D9
:101EAE002007013E84000A128A150A200A128A159A
:101EBE00A1000A128A150A200A128A15A200220807
:101ECE002702031D6C2F2108260203186F2F702F77
:101EDE00712F7B2F0130A0002008A907053029069D
:101EEE00031D7A2F7B2F552F240803390319802FBA
:101EFE00812F8C2F2D30A0002808840020088313FA
:101F0E0080000130A0002008A8072908A0002008A2
:101F1E00A500DC2F0A3083120313BE000030BF0071
:101F2E00831603132508A0002007013E84000A1221
:101F3E008A150A200A128A1583120313B6000A1292
:101F4E008A150A200A128A15B7008316031327086A
:101F5E0083120313B9008316031326088312031387
:101F6E00B8000A128A11B9270A128A1583120313AE
:101F7E003708C1003608C0000A128A15A7240A12B3
:101F8E008A15831203133E08303E83160313A100F5
:101F9E002108A9002908A00028088400200883131E
:101FAE0080000130A0002008A807FF30A000200804
:101FBE00A507250A031DE42FE52F912F013083126B
:101FCE000313C407FF30440784000A128A150A203F
:101FDE000A128A1583160313A0002008A9002908E7
:101FEE00031DFA2FFB2F062F280884008313800170
:021FFE000800D9
:04400E00F120FF3F5F
:00000001FF
