:020000040000FA
:060000000A128A110E280D
:10000800FE00030E83120313A4000A08A5000A12B7
:100018008A15B02C0A128A11112883120313E501DC
:10002800E601E701E801E9018313A0308400BB3051
:100038000A128A1560230A128A1183010A128A1188
:10004800862B8312031332088039B7003708BC00A7
:100058003208B7003707B8003808C200B11F352882
:10006800362837284214420803193B283C284B28D5
:10007800420A031D4028412849280030B2000030B8
:10008800B1000030B0000030AF00B1175328003085
:10009800B2000030B1000030B0000030AF003608C8
:1000A8008039B7003708BC063608B7003707B800EC
:1000B8003808C100B51F6128622863284114410827
:1000C8000319672868287728410A031D6C286D28BA
:1000D80075280030B6000030B5000030B40000309C
:1000E800B300B5177F280030B6000030B5000030E7
:1000F800B4000030B30041080319832884288928F4
:100108004208031D8828892892280030B200003050
:10011800B1000030B0000030AF00852B2F08B700C9
:100128003708A60035080A128A15F9230A128A1117
:10013800831203132708C8002608C7004708B7001A
:10014800B801B901BA013A08C0003908BF00380837
:10015800BE003708BD004808B700B801B901BA01A8
:100168003A08C6003908C5003808C4003708C30073
:100178003008B7003708A60034080A128A15F92390
:100188000A128A11831203132708C8002608C70019
:100198004708B700B801B901BA013708BD073808E0
:1001A80003110318013E0319DA28BE0739080311A1
:1001B8000318013E0319E128BF073A080311031881
:1001C800013E0319E828C0074808B700B801B9017B
:1001D800BA013708C307380803110318013E031989
:1001E800F628C407390803110318013E0319FD282E
:1001F800C5073A0803110318013E03190429C60765
:100208003108B7003708A60033080A128A15F923FF
:100218000A128A11831203132708C8002608C70088
:100228004708B700B801B901BA013708BD0738084F
:1002380003110318013E03192229BE0739080311C7
:100248000318013E03192929BF073A0803110318A7
:10025800013E03193029C0074808B700B801B901A1
:10026800BA013708C307380803110318013E0319F8
:100278003E29C407390803110318013E031945290B
:10028800C5073A0803110318013E03194C29C6078C
:100298000830B7000310BD0DBE0DBF0DC00DB70B64
:1002A8004E293008B7003708A60033080A128A1505
:1002B800F9230A128A11831203132708C800260893
:1002C800C7004708B7004808B800B901BA0137089D
:1002D800BD07380803110318013E03197429BE0726
:1002E800390803110318013E03197B29BF073A088F
:1002F80003110318013E03198229C0072F08B7000C
:100308003708A60034080A128A15F9230A128A1136
:10031800831203132708C8002608C7004708B70038
:100328004808B800B901BA013708BD0738080311F1
:100338000318013E0319A129BE0739080311031840
:10034800013E0319A829BF073A0803110318013E03
:100358000319AF29C0070830B7000310BD0DBE0D43
:10036800BF0DC00DB70BB1292F08B7003708A6007D
:1003780033080A128A15F9230A128A118312031301
:100388002708C8002608C7004708B7004808B8006B
:10039800B901BA013708BD07380803110318013E2F
:1003A8000319D729BE07390803110318013E031999
:1003B800DE29BF073A0803110318013E0319E5298E
:1003C800C0073008B7003708A60035080A128A1592
:1003D800F9230A128A11831203132708C800260872
:1003E800C7004708B7004808B800B901BA0137087C
:1003F800C307380803110318013E0319042AC40768
:10040800390803110318013E03190B2AC5073A08D6
:1004180003110318013E0319122AC6073108B70051
:100428003708A60034080A128A15F9230A128A1115
:10043800831203132708C8002608C7004708B70017
:100448004808B800B901BA013708C30738080311CA
:100458000318013E0319312AC40739080311031888
:10046800013E0319382AC5073A0803110318013E4B
:1004780003193F2AC6073108B7003708A600350810
:100488000A128A15F9230A128A11831203132708FC
:10049800C8002608C7004708B7004808B800B901CF
:1004A800BA0108300310B70DB80DB90DBA0DFF3EEB
:1004B800031D562A3708C307380803110318013EDD
:1004C8000319672AC407390803110318013E0319E1
:1004D8006E2AC5073A0803110318013E0319752A45
:1004E800C6073D08B7003E08B8003F08B9004008F5
:1004F800BA0018300310BA0CB90CB80CB70CFF3E90
:10050800031D7E2A3708C307380803110318013E64
:1005180003198F2AC407390803110318013E031968
:10052800962AC5073A0803110318013E03199D2AA4
:10053800C6070830B7000310BD0DBE0DBF0DC00DB6
:10054800B70B9F2A42084107B700B801B80D370812
:10055800823EC70038080318013EFF3EC800D12A72
:100568000130B7000310C30DC40DC50DC60DB70B80
:10057800B62AC01FC02AC12AC22A43140130B700B4
:100588000310BD0DBE0DBF0DC00DB70BC42AFF3043
:10059800C7070318C80AFF30C807C51FD42AD52AB9
:1005A800B42AC101C01FD92ADA2AF62AFF303D052C
:1005B800B700FF303E05B800FF303F05B9007F3077
:1005C8004005BA003A083904380437040319ED2AFB
:1005D800EE2AF12AC101C10AF62A431CF42AF52A97
:1005E800F62AEE2A41080319FA2AFB2A2C2B013095
:1005F800C307003003180130C40700300318013066
:10060800C507003003180130C607461C0C2B0D2BFC
:100618002C2B4308B7004408B8004508B900460821
:10062800BA000130BB003A0DBA0CB90CB80CB70CC3
:10063800BB0B172B3A08C6003908C5003808C40098
:100648003708C3000130C7070318C80A0030C807B5
:100658004808803AFF0080307F02031D352BFF30A9
:100668004702031C382B392B442B7F30831203138A
:10067800C6008030C5000030C4000030C300792BAC
:10068800831203134808803AFF0080307F02031D5D
:100698004F2B013047020318522B532B5F2B00308E
:1006A80083120313C6000030C5000030C4000030B8
:1006B800C300BC01792B831203134708B70037081E
:1006C800C200FF30C305FF30C4057F30C5050030C8
:1006D800C605421C702B712B722BC5174208B70038
:1006E8000310370CB8003808C6003C08B7003708B4
:1006F800C6044608B2004508B1004408B0004308E3
:10070800AF0008000A128A158D230A128A11831273
:1007180003139F14AB0100300A128A157F240A12B2
:100728008A110B3083120313AB008030AC000A121D
:100738008A1522240A128A1183120313AB01063088
:100748000A128A157F240A128A11103083120313A1
:10075800AB008030AC000A128A1522240A128A11D2
:1007680083120313AB010B300A128A157F240A1275
:100778008A11153083120313AB008030AC000A12C3
:100788008A1522240A128A11831203136808031D8A
:10079800CE2BCF2B0B2D83160313230883120313A1
:1007A800B60083160313220883120313B5008316B9
:1007B8000313210883120313B400831603132008BC
:1007C80083120313B3004330B200FA30B100003093
:1007D800B0000030AF000A128A1125200A128A11CF
:1007E800831203133208D0003108CF003008CE003E
:1007F8002F08CD004330CC007F30CB000030CA003A
:100808000030C9000A128A1523260A128A11831297
:1008180003134C0883160313BE00831203134B08FB
:1008280083160313BD00831203134A0883160313A8
:10083800BC0083120313490883160313BB000A1272
:100848008A116A270A128A11831603133C08831235
:100858000313E600831603133B0883120313E50012
:10086800E7010A30AE000030AF006608B100650845
:10087800B0000A128A15E7240A128A118312031398
:100888002E0883160313C400831203136708A43EBB
:100898008400831603134408831380000A308312EC
:1008A8000313A6000030A7006608A9006508A80081
:1008B8000A128A1523250A128A118312031327089C
:1008C800E6002608E500013083160313C400440837
:1008D80083120313E70703306702031C742C752C7B
:1008E800352C1A3083160313C400440883120313EB
:1008F800B400831603132608C500C60145088312F1
:100908000313B50083160313460883120313B600B6
:10091800A7300A128A1180260A128A118312031339
:10092800AB01AB0A00300A128A157F240A128A1119
:10093800A73083120313AB000030AC000A128A15EB
:1009480022240A128A11223083160313C400440891
:1009580083120313B400831603132508C500C601C8
:10096800450883120313B500831603134608831240
:100978000313B600A7300A128A1180260A128A11B8
:1009880083120313AB01AB0A02300A128A157F24C3
:100998000A128A11A73083120313AB000030AC008F
:1009A8000A128A1522240A128A111E30831603138A
:1009B800C400440883120313B400831603132408E5
:1009C800C500C601450883120313B5008316031337
:1009D800460883120313B600A7300A128A1180262C
:1009E8000A128A1183120313AB01AB0A03300A12ED
:1009F8008A157F240A128A11A73083120313AB00C9
:100A08000030AC000A128A1522240A128A118312B5
:100A1800031368080319112D122D4E2E8316031384
:100A2800230883120313B6008316031322088312C4
:100A38000313B50083160313210883120313B400AC
:100A480083160313200883120313B3004330B20044
:100A5800FA30B1000030B0000030AF000A128A113D
:100A680025200A128A11831203133208D000310894
:100A7800CF003008CE002F08CD004330CC007F30A7
:100A8800CB000030CA000030C9000A128A1523269C
:100A98000A128A11831203134C0883160313BE002B
:100AA800831203134B0883160313BD008312031329
:100AB8004A0883160313BC008312031349088316DC
:100AC8000313BB000A128A116A270A128A118316B5
:100AD80003133C0883120313E600831603133B0831
:100AE80083120313E500E7010A30AE000030AF00BF
:100AF8006608B1006508B0000A128A15E7240A12D0
:100B08008A11831203132E0883160313C400831259
:100B180003136708A43E8400831603134408831351
:100B280080000A3083120313A6000030A70066086D
:100B3800A9006508A8000A128A1523250A128A1135
:100B4800831203132708E6002608E5000130831600
:100B58000313C400440883120313E7070330670232
:100B6800031CB72DB82D782D1A3083160313C40033
:100B7800440883120313B400831603132608C50020
:100B8800C601450883120313B500831603134608EC
:100B980083120313B600A7300A128A1180260A129C
:100BA8008A1183120313AB01AB0A06300A128A15A5
:100BB8007F240A128A11A73083120313AB00003076
:100BC800AC000A128A1522240A128A1122308316CE
:100BD8000313C400440883120313B40083160313D9
:100BE8002508C500C601450883120313B5008316FE
:100BF8000313460883120313B600A7300A128A119A
:100C080080260A128A1183120313AB01AB0A08303B
:100C18000A128A157F240A128A11A7308312031335
:100C2800AB000030AC000A128A1522240A128A117D
:100C38001E3083160313C400440883120313B40040
:100C4800831603132408C500C6014508831203133D
:100C5800B50083160313460883120313B600A730A2
:100C68000A128A1180260A128A1183120313AB0111
:100C7800AB0A09300A128A157F240A128A11A73092
:100C880083120313AB000030AC000A128A15222429
:100C98000A128A11831203139F18532E542EC82B3D
:100CA800680883160313C400C40DC40D831203130C
:100CB8001F08831603134406C3394406831203131B
:100CC8009F0068080319692E6A2E722EFF3083165A
:100CD8000313C400440883120313E8000F3083167B
:100CE8000313C400C40B762E792E831203139F14AA
:100CF800C82B0A128A110E2883120313BF0035303D
:100D0800B7003708BA00532F2530400603198D2E37
:100D18008E2E9A2E4008B7003F08840037088313A8
:100D280080000130B7003708BF07532FBB010130DF
:100D3800B407FF30340784000A128A150A200A1201
:100D48008A11C000B700B8013808003A0319AD2E5F
:100D5800532F3708003A0319652F643A0319B82E40
:100D68000D3A0319B82E532F3A088400831300084C
:100D7800BD00840A0008BE000230B7003708BA0771
:100D8800BE1FC72EC82ED12E0330B7003708BB04AC
:100D9800BD09BE09BD0A0319BE0AC001C00A400840
:100DA800B7003707013E84000A128A150A200A1282
:100DB8008A11B8000A128A150A200A128A11B90083
:100DC80039083E02031DEA2E38083D020318ED2EAD
:100DD800EE2EEF2EF92E0130B7003708C007053088
:100DE8004006031DF82EF92ED32E3B0803390319AC
:100DF800FE2EFF2E0A2F2D30B7003F08840037083B
:100E0800831380000130B7003708BF074008B700D8
:100E18003708BC004A2F0A30AE000030AF003C084B
:100E2800B7003707013E84000A128A150A200A1201
:100E38008A11A6000A128A150A200A128A11A70026
:100E48003E08A9003D08A8000A128A1523250A129F
:100E58008A11831203132708B1002608B0000A126A
:100E68008A15E7240A128A11831203132E08303ECA
:100E7800B8003808C0004008B7003F0884003708A9
:100E8800831380000130B7003708BF07FF30B70071
:100E98003708BC073C0A031D522F532F0F2F013070
:100EA800B407FF30340784000A128A150A200A1290
:100EB8008A11B7003708C0004008031D642F652F4A
:100EC800882E3F08840083138001080003108316CE
:100ED80003133D0D3E0DBF003F0883120313E400CA
:100EE8006408031D782F792F842F0030831603138D
:100EF800BE000030BD000030BC000030BB00FB2F3E
:100F0800831603133B08BF003C08C0003D08C1001E
:100F18003E08C2001F300310C20CC10CC00CBF0C2D
:100F2800FF3E031D8F2F3F08C3004308831203139E
:100F3800E30083160313BD17FF30BB05FF30BC0564
:100F4800FF30BD050030BE05963083120313E4025E
:100F5800E41FAF2FB02FCE2F6408803A973E0318B6
:100F6800B62FB72FB82F792F01300310831603132C
:100F7800BE0CBD0CBC0CBB0CFF3E031DB92F0130D1
:100F8800BF003F0883120313E407031DCC2FCD2FA6
:100F9800B82FE92F20306402031CD32FD42FE42F5D
:100FA800792F013083160313BF000310BB0DBC0D4E
:100FB800BD0DBE0DBF0BD92F013083120313E40200
:100FC8006408031DE82FE92FD52F63080319ED2FB7
:100FD800EE2FFB2F83160313BB09BC09BD09BE09FD
:100FE800BB0A0319BC0A0319BD0A0319BE0A080083
:10100000FF1B0A2883137F1883170008840A03191B
:10101000FF0A080008308A000408840A82070034A6
:10102000013400340A34003464340034E8340334C6
:1010300010342734203453343134203400342034F5
:101040005334323420340034203453343334203495
:101050000034253469342E34003425346934563450
:0810600000342534693400342A
:1016C00064008001840A0406031900340406612BB7
:1016D000C0308B004030831603138C0040308C00E8
:1016E00008008130831203139F00831603139F01A8
:1016F0009E01831203139E01080083120313A700A7
:101700008801080827048800260C031C8612031889
:10171000861606138617861308000A128A15712387
:101720000A128A150A128A15D1230A128A150A1278
:101730008A1568230A128A150A128A154F240A127A
:101740008A15080083120313AA000D3083120313B5
:10175000A900FB30A800A80BAB2BA90BAB2B831265
:101760000313A6012A080A128A157D230A128A1574
:10177000080083120313AA000D3083120313A9007B
:10178000FB30A800A80BC22BA90BC22B831203139A
:10179000A601A60A2A080A128A157D230A128A15AA
:1017A00008000330831603178800033083160313E1
:1017B000850083120313850183160317890183169D
:1017C0000313860183120313860183160313960104
:1017D0008701831203138701831603138801831281
:1017E00003138801831603138901831203138901EC
:1017F000080083120313AE00AA01AB012608A8005B
:10180000A9012808AC002908AD002E1C082C092CC1
:101810000F2C2C08AA070318AB0A2D08AB070130C0
:101820000310AC0DAD0DFF3E031D102C0310AE0CCC
:101830002E08031D1C2C1D2C052C2B08A7002A0884
:10184000A600080083120313AE013D2C2E082B07BF
:1018500084002C0803182C0AFF000A128A150020A5
:101860000A128A150A128A15B9230A128A1501303A
:1018700083120313AD002D08AE072E082B0784003A
:101880002C0803182C0AFF000A128A1500200A12DD
:101890008A15003A031D4D2C4E2C262C080083126D
:1018A000031388018316031388012730831203135F
:1018B000AC00F430AB00AB0B5B2CAC0B5B2C000032
:1018C00032300A128A15A2230A128A1538300A12F7
:1018D0008A15A2230A128A150C300A128A15A2232D
:1018E0000A128A1501300A128A15A2230A128A15D1
:1018F00006300A128A15A2230A128A1508008312DA
:101900000313B00002302B020318872C882CAF2C55
:1019100010303002031C8D2C8E2C8F2CAF2C2B03FF
:101920000319932C942C9A2C80303004AE00003094
:10193000AF009F2CC0303004AE000030AF002E0846
:101940000A128A15A2230A128A150D308312031374
:10195000AD00FB30AC00AC0BAB2CAD0BAB2C0800DE
:101960000C1FB32CB42CE02C9F18B72CB82CE02CF7
:101970001E08A0002008E9006908A000A101A2013A
:10198000A3012308F3002208F2002108F100200837
:10199000F00000300A128A1569250A128A157308A8
:1019A00083160313A3007208A2007108A100700837
:1019B000A000013083120313A0002008E8070C13D5
:1019C00025088A00240E8300FE0E7E0E0900831275
:1019D00003132E082F040319EE2CEF2C1E2DB30138
:1019E000B30AFD2C01300310AE0DAF0DFF3E031DF9
:1019F000F32C0130B2003208B307AF1F002D012DC8
:101A0000F22C2F083102031D072D2E083002031C73
:101A10000A2D0B2D112D2E08B0022F08031CB10327
:101A2000B10201300310AF0CAE0CFF3E031D122DAE
:101A30000130B302031D1D2D1E2D012D3108AF00F5
:101A40003008AE00080083120313AB01AC01260876
:101A5000270403192C2D2D2D642DAD01AD0A3B2D2E
:101A600001300310A60DA70DFF3E031D312D0130DF
:101A7000AA002A08AD07A71F3E2D3F2D302D0130AB
:101A80000310AB0DAC0DFF3E031D402D27082902AE
:101A9000031D4C2D26082802031C4F2D502D572DB9
:101AA0002608A8022708031CA903A9022B14013049
:101AB0000310A70CA60CFF3E031D582D0130AD02EC
:101AC000031D632D642D3F2D2C08A7002B08A600B5
:101AD0000800F800780803196E2D6F2D832DF31F71
:101AE000722D732D832D7009FA007109FB007209A4
:101AF000FC007309FD00FA0A0319FB0A0319FC0A2A
:101B00000319FD0A8B2D7308FD007208FC00710893
:101B1000FB007008FA007308720471047004031D5E
:101B2000922D932D9C2D0030F3000030F2000030F8
:101B3000F1000030F000222E9630F4007408F90015
:101B4000AE2D0130F4007408F90701300310FD0CCC
:101B5000FC0CFB0CFA0CFF3E031DA62DFE307D0590
:101B6000031DB32DB42DA12DD02D0130F400740828
:101B7000F9070130FA07003003180130FB07003085
:101B800003180130FC07003003180130FD07013055
:101B90000310FD0CFC0CFB0CFA0CFF3E031DC82DC2
:101BA000FF307D05031DD52DD62DB52DE22D01303D
:101BB000F9020130F4000310FA0DFB0DFC0DFD0DD0
:101BC000F40BDB2DFC1BE52DE62DEC2D023079020C
:101BD0000318EB2DEC2DD72D7918EF2DF02DF82DC6
:101BE000FF30FA05FF30FB057F30FC05FF30FD05B7
:101BF0000310F90C7908F400F501F601F70118302B
:101C00000310F40DF50DF60DF70DFF3E031D002E2C
:101C10007408FA047508FB047608FC047708FD04D0
:101C200078080319142E152E1A2EF31F182E192EAC
:101C30001A2EFD177D08F3007C08F2007B08F100E6
:101C40007A08F00008008312031350088039D1008D
:101C50005108DA005008D1005107D2005208E100C3
:101C6000CF1F332E342E352E611461080319392EFF
:101C70003A2E4A2E610A031D3E2E3F2E472E00307B
:101C8000D0000030CF000030CE000030CD00CF17A4
:101C9000D001522E0030D0000030CF000030CE00F6
:101CA0000030CD004C088039D1005108DA064C08CC
:101CB000D1005107D2005208E200CB1F602E612EE6
:101CC000622E621462080319662E672E772E620A4E
:101CD000031D6B2E6C2E742E0030CC000030CB0018
:101CE0000030CA000030C900CB17CC017F2E003075
:101CF000CC000030CB000030CA000030C9004C08D6
:101D00004B044A044904031D862E872EA02E003062
:101D1000D0000030CF000030CE000030CD00803049
:101D2000CF047F30D0045A08D1005108D0045008A5
:101D3000CC004F08CB004E08CA004D08C900FF2F49
:101D40006108031DA42EA52EAE2E0030CC0000305D
:101D5000CB000030CA000030C900FF2F6108D1005D
:101D6000D2015208D40062085102D300031CD403EC
:101D700053087F3EDB0054080318013E003EDC00A0
:101D80005008D9004F08D8004E08D7004D08D6009B
:101D90000030D0000030CF000030CE000030CD0049
:101DA0000030E0000030DF000030DE000030DD00F9
:101DB000E201242F62080319DE2EDF2EFF2E0130F0
:101DC000D1000310D60DD70DD80DD90DD10BE12EB2
:101DD0000130D1000310CD0DCE0DCF0DD00DD10BA4
:101DE000EA2EE01FF42EF52EF62E4D140130D10010
:101DF0000310DD0DDE0DDF0DE00DD10BF82E4C08CC
:101E00005902031D0D2F4B085802031D0D2F4A08C0
:101E10005702031D0D2F49085602031C102F112FC6
:101E2000202F60174908D6024A08031C4A0FD70220
:101E30004B08031C4B0FD8024C08031C4C0FD90253
:101E40000130D1005108E2071A306202031C292F29
:101E50002A2FDA2E59085804570456040319312F33
:101E6000322F512F5D14512F0130D1000310CD0DB1
:101E7000CE0DCF0DD00DD10B362FE01F402F412FAF
:101E8000422F4D140130D1000310DD0DDE0DDF0DAA
:101E9000E00DD10B442FFF30DB070318DC0AFF30C5
:101EA000DC07CF1F542F552F342FE201E01F592F8D
:101EB0005A2F762FFF305D05D100FF305E05D2002E
:101EC000FF305F05D3007F306005D4005408530411
:101ED0005204510403196D2F6E2F712FE201E20A93
:101EE000762F4D1C742F752F762F6E2F62080319D5
:101EF0007A2F7B2FAC2F0130CD0700300318013033
:101F0000CE07003003180130CF070030031801302E
:101F1000D007501C8C2F8D2FAC2F4D08D1004E08B0
:101F2000D2004F08D3005008D4000130D500540D22
:101F3000D40CD30CD20CD10CD50B972F5408D00055
:101F40005308CF005208CE005108CD000130DB0706
:101F50000318DC0A0030DC075C08803AFF008030A0
:101F60007F02031DB52FFF305B02031CB82FB92F72
:101F7000C72FFF3083120313DB000030DC0000307A
:101F8000D0000030CF000030CE000030CD008312F2
:101F900003135C08803AFF0080307F02031DD22FBC
:101FA00001305B020318D52FD62FE32F83120313C2
:101FB000DB01DC010030D0000030CF000030CE006B
:101FC0000030CD00DA01831203135B08D100510801
:101FD000E100611CEC2FED2FEF2FCF17F32F7F3097
:101FE000D1005108CF056108D1000310510CD20077
:101FF0005208D0005A08D1005108D004972E08008A
:04400E00F120FF3F5F
:00000001FF
