:020000040000FA
:060000000A128A110C280F
:10000800FE00030EF0000A08F1000A128A159D2C62
:100018000A128A110F2883120313E601E701E80187
:10002800E901EA01EB01EC018313A0308400CC3034
:100038000A128A15A4240A128A1183010A128A153F
:10004800A82E8312031323088039A8002808AD00BE
:100058002308A8002807A9002908B300A21F3528EB
:10006800362837283314330803193B283C284B28F3
:10007800330A031D4028412849280030A3000030D6
:10008800A2000030A1000030A000A21753280030C1
:10009800A3000030A2000030A1000030A000270813
:1000A8008039A8002808AD062708A8002807A90055
:1000B8002908B200A61F6128622863283214320872
:1000C8000319672868287728320A031D6C286D28C9
:1000D80075280030A7000030A6000030A5000030C9
:1000E800A400A6177F280030A7000030A600003023
:1000F800A5000030A4003208031983288428892821
:100108003308031D8828892892280030A30000306E
:10011800A2000030A1000030A000852B2008A80014
:100128002808F20026080A128A1541250A128A119F
:10013800730883120313B9007208B8003808A800BE
:10014800A901AA01AB012B08B1002A08B0002908AF
:10015800AF002808AE003908A800A901AA01AB0120
:100168002B08B7002A08B6002908B5002808B400EB
:100178002108A8002808F20025080A128A15412536
:100188000A128A11730883120313B9007208B8009F
:100198003808A800A901AA01AB012808AE07290858
:1001A80003110318013E0319DA28AF072A080311BF
:1001B8000318013E0319E128B0072B08031103189F
:1001C800013E0319E828B1073908A800A901AA01C6
:1001D800AB012808B407290803110318013E0319C5
:1001E800F628B5072A0803110318013E0319FD284C
:1001F800B6072B0803110318013E03190429B70792
:100208002208A8002808F20024080A128A154125A5
:100218000A128A11730883120313B9007208B8000E
:100228003808A800A901AA01AB012808AE072908C7
:1002380003110318013E03192229AF072A080311E5
:100248000318013E03192929B0072B0803110318C5
:10025800013E03193029B1073908A800A901AA01EC
:10026800AB012808B407290803110318013E031934
:100278003E29B5072A0803110318013E0319452929
:10028800B6072B0803110318013E03194C29B707B9
:100298000830A8000310AE0DAF0DB00DB10DA80BBE
:1002A8004E292108A8002808F20024080A128A15F5
:1002B80041250A128A11730883120313B9007208C0
:1002C800B8003808A8003908A900AA01AB01280815
:1002D800AE07290803110318013E03197429AF0753
:1002E8002A0803110318013E03197B29B0072B08BC
:1002F80003110318013E03198229B1072008A80039
:100308002808F20025080A128A1541250A128A11BE
:10031800730883120313B9007208B8003808A800DC
:100328003908A900AA01AB012808AE07290803115A
:100338000318013E0319A129AF072A08031103185E
:10034800013E0319A829B0072B0803110318013E21
:100358000319AF29B1070830A8000310AE0DAF0D7F
:10036800B00DB10DA80BB1292008A8002808F2008B
:1003780024080A128A1541250A128A117308831261
:100388000313B9007208B8003808A8003908A90092
:10039800AA01AB012808AE07290803110318013E7A
:1003A8000319D729AF072A0803110318013E0319B7
:1003B800DE29B0072B0803110318013E0319E529AC
:1003C800B1072108A8002808F20026080A128A1591
:1003D80041250A128A11730883120313B90072089F
:1003E800B8003808A8003908A900AA01AB012808F4
:1003F800B407290803110318013E0319042AB50795
:100408002A0803110318013E03190B2AB6072B0803
:1004180003110318013E0319122AB7072208A8007E
:100428002808F20025080A128A1541250A128A119D
:10043800730883120313B9007208B8003808A800BB
:100448003908A900AA01AB012808B4072908031133
:100458000318013E0319312AB5072A0803110318A6
:10046800013E0319382AB6072B0803110318013E69
:1004780003193F2AB7072208A8002808F20026080F
:100488000A128A1541250A128A1173088312031366
:10049800B9007208B8003808A8003908A900AA01EC
:1004A800AB0108300310A80DA90DAA0DAB0DFF3E36
:1004B800031D562A2808B407290803110318013E0A
:1004C8000319672AB5072A0803110318013E0319FF
:1004D8006E2AB6072B0803110318013E0319752A63
:1004E800B7072E08A8002F08A9003008AA0031086D
:1004F800AB0018300310AB0CAA0CA90CA80CFF3EDB
:10050800031D7E2A2808B407290803110318013E91
:1005180003198F2AB5072A0803110318013E031986
:10052800962AB6072B0803110318013E03199D2AC2
:10053800B7070830A8000310AE0DAF0DB00DB10D10
:10054800A80B9F2A33083207A800A901A90D28087B
:10055800823EB80029080318013EFF3EB900D12A9F
:100568000130A8000310B40DB50DB60DB70DA80BDA
:10057800B62AB11FC02AC12AC22A34140130A800E1
:100588000310AE0DAF0DB00DB10DA80BC42AFF308E
:10059800B8070318B90AFF30B907B61FD42AD52AF5
:1005A800B42AB201B11FD92ADA2AF62AFF302E0559
:1005B800A800FF302F05A900FF303005AA007F30C2
:1005C8003105AB002B082A04290428040319ED2A55
:1005D800EE2AF12AB201B20AF62A341CF42AF52AC4
:1005E800F62AEE2A32080319FA2AFB2A2C2B0130A4
:1005F800B407003003180130B50700300318013084
:10060800B607003003180130B707371C0C2B0D2B29
:100618002C2B3408A8003508A9003608AA0037088A
:10062800AB000130AC002B0DAB0CAA0CA90CA80C2C
:10063800AC0B172B2B08B7002A08B6002908B50001
:100648002808B4000130B8070318B90A0030B90700
:100658003908803AFF0080307F02031D352BFF30B8
:100668003802031C382B392B442B7F308312031399
:10067800B7008030B6000030B5000030B400792BE8
:10068800831203133908803AFF0080307F02031D6C
:100698004F2B013038020318522B532B5F2B00309D
:1006A80083120313B7000030B6000030B5000030E5
:1006B800B400AD01792B831203133808A800280869
:1006C800B300FF30B405FF30B5057F30B605003004
:1006D800B705331C702B712B722BB6173308A80083
:1006E8000310280CA9002908B7002D08A80028081D
:1006F800B7043708A3003608A2003508A10034085B
:10070800A00008008312031341088039C200420880
:10071800CB004108C2004207C3004308D200C01FF3
:10072800962B972B982B5214520803199C2B9D2B10
:10073800AD2B520A031DA12BA22BAA2B0030C100FE
:100748000030C0000030BF000030BE00C017C1013B
:10075800B52B0030C1000030C0000030BF000030B1
:10076800BE003D088039C2004208CB063D08C200E1
:100778004207C3004308D300BC1FC32BC42BC52B9F
:10078800531453080319C92BCA2BDA2B530A031D18
:10079800CE2BCF2BD72B0030BD000030BC00003053
:1007A800BB000030BA00BC17BD01E22B0030BD0011
:1007B8000030BC000030BB000030BA003D083C04EB
:1007C8003B043A04031DE92BEA2B032C0030C1003B
:1007D8000030C0000030BF000030BE008030C004D0
:1007E8007F30C1044B08C2004208C1044108BD0063
:1007F8004008BC003F08BB003E08BA00622D520802
:10080800031D072C082C112C0030BD000030BC0043
:100818000030BB000030BA00622D5208C200C3018C
:100828004308C50053084202C400031CC50344081A
:100838007F3ECC0045080318013E003ECD0041082C
:10084800CA004008C9003F08C8003E08C700003079
:10085800C1000030C0000030BF000030BE000030D2
:10086800D1000030D0000030CF000030CE00D301DE
:10087800872C53080319412C422C622C0130C200EA
:100888000310C70DC80DC90DCA0DC20B442C013089
:10089800C2000310BE0DBF0DC00DC10DC20B4D2C03
:1008A800D11F572C582C592C3E140130C20003106C
:1008B800CE0DCF0DD00DD10DC20B5B2C3D084A02D9
:1008C800031D702C3C084902031D702C3B0848028C
:1008D800031D702C3A084702031C732C742C832CBC
:1008E80051173A08C7023B08031C3B0FC8023C08D3
:1008F800031C3C0FC9023D08031C3D0FCA0201300E
:10090800C2004208D3071A305302031C8C2C8D2CCA
:100918003D2C4A084904480447040319942C952C93
:10092800B42C4E14B42C0130C2000310BE0DBF0D00
:10093800C00DC10DC20B992CD11FA32CA42CA52C22
:100948003E140130C2000310CE0DCF0DD00DD10DD5
:10095800C20BA72CFF30CC070318CD0AFF30CD07F8
:10096800C01FB72CB82C972CD301D11FBC2CBD2C81
:10097800D92CFF304E05C200FF304F05C300FF30B1
:100988005005C4007F305105C500450844044304A0
:1009980042040319D02CD12CD42CD301D30AD92C3E
:1009A8003E1CD72CD82CD92CD12C53080319DD2C5C
:1009B800DE2C0F2D0130BE07003003180130BF07B1
:1009C800003003180130C007003003180130C10798
:1009D800411CEF2CF02C0F2D3E08C2003F08C3002D
:1009E8004008C4004108C5000130C600450DC50CCB
:1009F800C40CC30CC20CC60BFA2C4508C100440831
:100A0800C0004308BF004208BE000130CC070318ED
:100A1800CD0A0030CD074D08803AFF0080307F02B4
:100A2800031D182DFF304C02031C1B2D1C2D2A2DD5
:100A3800FF3083120313CC000030CD000030C1001A
:100A48000030C0000030BF000030BE008312031326
:100A58004D08803AFF0080307F02031D352D01309C
:100A68004C020318382D392D462D83120313CC015F
:100A7800CD010030C1000030C0000030BF000030A0
:100A8800BE00CB01831203134C08C2004208D200F7
:100A9800521C4F2D502D522DC017562D7F30C2009D
:100AA8004208C0055208C2000310420CC3004308A4
:100AB800C1004B08C2004208C104FA2B0800831287
:100AC8000313B5002530AB002B08AE00D42E25301B
:100AD80036060319702D712D7D2D3608AB003508AB
:100AE80084002B08831380000130AB002B08B50766
:100AF800D42EB301B401B001240884000A128A1567
:100B08000A200A128A110A128A15EA240A128A117C
:100B1800031C8F2D902DD02D83120313B301B40124
:100B28000A30F2000030F300831203133408F50092
:100B38003308F4000A128A151C250A128A11730850
:100B480083120313B4007208B300240884000A1245
:100B58008A150A200A128A11D03EAB00FF3003180A
:100B68000030AC002B08B3070318B40A2C08B407EC
:100B78000130AB002B08A407240884000A128A1548
:100B88000A200A128A110A128A15EA240A128A11FC
:100B98000318CF2DD02D942D013083120313A407F1
:100BA800FF30240784000A128A150A200A128A11C3
:100BB800B600AB00AC012C08003A0319E42DD42E82
:100BC8002B08003A0319E62E643A0319EF2D0D3A63
:100BD8000319EF2DD42E2E08840083130008B100CA
:100BE800840A0008B2000230AB002B08AE07B21F1F
:100BF800FE2DFF2D082E0330AB002B08B004B109E1
:100C0800B209B10A0319B20AB601B60A3608AB002E
:100C18002B07013E84000A128A150A200A128A113B
:100C2800AC000A128A150A200A128A11AD002D0892
:100C38003202031D212E2C0831020318242E252EE2
:100C4800262E302E0130AB002B08B60705303606AD
:100C5800031D2F2E302E0A2E330834040319352E87
:100C6800362E422E3008033903193B2E3C2E422ED5
:100C7800FF30B3070318B40AFF30B4073408803ACA
:100C8800803C031D492E3308360203184C2E4D2E86
:100C9800592E831203133608AB00AC012B08B3029C
:100CA8002C08031CB403B4025D2E83120313B30192
:100CB800B401330834040319622E632E7A2E2030CF
:100CC800AB00350884002B08831380000130AB008B
:100CD8002B08B507FF30B3070318B40AFF30B40771
:100CE80033083404031D792E7A2E632E3008033915
:100CF80003197F2E802E8B2E2D30AB0035088400F3
:100D08002B08831380000130AB002B08B507360889
:100D1800AB002B08AF00CB2E0A30A0000030A1009A
:100D28002F08AB002B07013E84000A128A150A20FF
:100D38000A128A11F2000A128A150A200A128A1166
:100D4800F3003208F5003108F4000A128A11A727C7
:100D58000A128A11730883120313A3007208A200EF
:100D68000A128A15F0250A128A1183120313200821
:100D7800303EAC002C08B6003608AB0035088400BD
:100D88002B08831380000130AB002B08B507FF3018
:100D9800AB002B08AF072F0A031DD32ED42E902E9D
:100DA8000130A407FF30240784000A128A150A209C
:100DB8000A128A11AB002B08B6003608031DE52E6F
:100DC800E62E6B2D350884008313800108008312FA
:100DD8000313A00020080319F22EF32E072FF51F86
:100DE800F62EF72E072F7209A2007309A3007409C3
:100DF800A4007509A500A20A0319A30A0319A40AE5
:100E08000319A50A0F2F7508A5007408A400730814
:100E1800A3007208A2007508740473047204031D09
:100E2800162F172F202F0030F5000030F400003067
:100E3800F3000030F200A62F9630F6007608A100E5
:100E4800322F0130F6007608A10701300310A50CF7
:100E5800A40CA30CA20CFF3E031D2A2FFE3025056F
:100E6800031D372F382F252F542F0130F600760811
:100E7800A1070130A207003003180130A307003092
:100E880003180130A407003003180130A50701300A
:100E98000310A50CA40CA30CA20CFF3E031D4C2FA1
:100EA800FF302505031D592F5A2F392F662F013082
:100EB800A1020130F6000310A20DA30DA40DA50D8B
:100EC800F60B5F2FA41B692F6A2F702F02302102A7
:100ED80003186F2F702F5B2F2118732F742F7C2FFF
:100EE800FF30A205FF30A3057F30A405FF30A5051C
:100EF8000310A10C2108F600F701F801F9011830D8
:100F08000310F60DF70DF80DF90DFF3E031D842FA4
:100F18007608A2047708A3047808A4047908A5042D
:100F280020080319982F992F9E2FF51F9C2F9D2F6E
:100F38009E2FA5172508F5002408F4002308F300C0
:100F48002208F2000800F701F80172087304031977
:100F5800AE2FAF2FE62FF901F90ABD2F013003108C
:100F6800F20DF30DFF3E031DB32F0130F600760896
:100F7800F907F31FC02FC12FB22F01300310F70D4F
:100F8800F80DFF3E031DC22F73087502031DCE2FF7
:100F980072087402031CD12FD22FD92F7208F402C1
:100FA8007308031CF503F502771401300310F30CE2
:100FB800F20CFF3E031DDA2F0130F902031DE52F65
:100FC800E62FC12F7808F3007708F2000800F60032
:100FD8000D30F500FB30F400F40BF02FF50BF02F7B
:100FE800F52FF201F20A76080A128A15B8240A12B5
:040FF8008A11080052
:10100000FF1B0A2883137F1883170008840A03191B
:10101000FF0A080008308A000408840A82070034A6
:10102000013400340A34003464340034E8340334C6
:1010300010342734203453343134203420342034D5
:101040002034533432342034203420342034533488
:10105000333420340034253469342E342534693453
:10106000253469345634003425343334693400343B
:10193A0071088A00700E8300FE0E7E0E0900640094
:10194A008001840A0406031900340406A52C8316B0
:10195A00031387118712203083120313940083160E
:10196A00031394010800F300831203138801080883
:10197A0073048800720C031C861203188616061359
:10198A008617861308000A128A15FC240A128A1579
:10199A000A128A1593250A128A150A128A15AC2484
:1019AA000A128A150800F6000D30F500FB30F40023
:1019BA00F40BDD2CF50BDD2CE22CF20176080A1271
:1019CA008A15B8240A128A150800F300F2013A307F
:1019DA0073020318F12CF22CFA2C30307302031C18
:1019EA00F72CF82CFA2CF201F20A720C0800831672
:1019FA0003178801831603138501831203138501D4
:101A0A0083160317890183160313860183120313AE
:101A1A008601831603139601880183120313880132
:101A2A008316031389018312031389010800F6013F
:101A3A00F701721C212D222D282D7408F607031890
:101A4A00F70A7508F70701300310F40DF50DFF3E8C
:101A5A00031D292D01300310F30CF20CFF3E031D68
:101A6A00302D72087304031D3B2D3C2D1E2D770863
:101A7A00F3007608F2000800FA00F601F70172088E
:101A8A00F400F5017408F8007508F9007A1C4E2D67
:101A9A004F2D552D7808F6070318F70A7908F70726
:101AAA0001300310F80DF90DFF3E031D562D0310EA
:101ABA00FA0C7A08031D622D632D4B2D7708F3006B
:101ACA007608F2000800FA017F2D7A087707840069
:101ADA0078080318780AFF000A128A1500200A12E9
:101AEA008A150A128A11EB270A128A150130F9009F
:101AFA007908FA077A087707840078080318780AB9
:101B0A0083120313FF000A128A1500200A128A158B
:101B1A00003A031D912D922D6A2D0800831203139A
:101B2A0088018316031388012730F800F530F7007F
:101B3A00F70B9D2DF80B9D2D32300A128A15D824E9
:101B4A000A128A1538300A128A15D8240A128A15F6
:101B5A000C300A128A15D8240A128A1501300A1280
:101B6A008A15D8240A128A1506300A128A15D82428
:101B7A000A128A15080083120313A20002307702A0
:101B8A000318C82DC92DEF2D10302202031CCE2DAB
:101B9A00CF2DD02DEF2D77030319D42DD52DDB2D85
:101BAA0080302204A0000030A100E02DC0302204C1
:101BBA00A0000030A10020080A128A15D8240A12AF
:101BCA008A150D30F900FB30F800F80BEA2DF90BF5
:101BDA00EA2DEF2D080083120313200821040319AC
:101BEA00F72DF82D272EFB01FB0A062E01300310D4
:101BFA00A00DA10DFF3E031DFC2D0130FA007A084D
:101C0A00FB07A11F092E0A2EFB2D21082302031D03
:101C1A00102E20082202031C132E142E1A2E20081E
:101C2A00A2022108031CA303A30201300310A10C82
:101C3A00A00CFF3E031D1B2E0130FB02031D262EA6
:101C4A00272E0A2E2308A1002208A000080003104C
:101C5A0083120313560D570DD8005808DE005E088C
:101C6A00031D382E392E422E0030D7000030D60000
:101C7A000030D5000030D400A72E5408D8005508EB
:101C8A00D9005608DA005708DB001F300310DB0CB6
:101C9A00DA0CD90CD80CFF3E031D4B2E5808DC0079
:101CAA005C08DD00D617FF30D405FF30D505FF30BC
:101CBA00D6050030D7059630DE02DE1F652E662E69
:101CCA00802E5E08803A973E03186C2E6D2E6E2E7B
:101CDA00392E01300310D70CD60CD50CD40CFF3E8C
:101CEA00031D6F2E0130D8005808DE07031D7E2E13
:101CFA007F2E6E2E972E20305E02031C852E862E96
:101D0A00922E392E0130D8000310D40DD50DD60DE0
:101D1A00D70DD80B892E0130DE025E08031D962EE0
:101D2A00972E872E5D0803199B2E9C2EA72ED40969
:101D3A00D509D609D709D40A0319D50A0319D60A27
:101D4A000319D70A08000A128A15C8240A128A1522
:101D5A00F70100300A128A15C0250A128A150B30BB
:101D6A00F7008030F8000A128A1568250A128A15C7
:101D7A008316031307108312031307108316031322
:101D8A008710831203138714831603130711831210
:101D9A0003130715831203130710013093008316E8
:101DAA0003131418D92EDA2EF92E831203131308EB
:101DBA00DF00E001E101E2016208F5006108F400D8
:101DCA006008F3005F08F20000300A128A11EB265D
:101DDA000A128A15750883160313A3007408A20051
:101DEA007308A1007208A000033083120313E000F5
:101DFA009730DF00DF0BFF2EE00BFF2E8312031359
:101E0A0007148710013093008316031314180E2F3A
:101E1A000F2F152F831203131308DF005F08EB003F
:101E2A00033083120313E0009730DF00DF0B1B2F10
:101E3A00E00B1B2F83120313871483160313230843
:101E4A0083120313A70083160313220883120313B2
:101E5A00A60083160313210883120313A500831611
:101E6A000313200883120313A4004330A300FA309B
:101E7A00A2000030A1000030A0000A128A11252019
:101E8A000A128A15831203132308C1002208C0000C
:101E9A002108BF002008BE004330BD007F30BC00CF
:101EAA000030BB000030BA000A128A1186230A12D7
:101EBA008A15831203133D08D7003C08D6003B0855
:101ECA00D5003A08D4000A128A152C260A128A1555
:101EDA00831203135508EA005408E900EC010A309A
:101EEA00A0000030A1006A08A3006908A2000A1233
:101EFA008A15F0250A128A15831203132008DF00B7
:101F0A006C08663E84005F08831380000A30F20082
:101F1A000030F3006A08F5006908F4000A128A1111
:101F2A00A7270A128A15730883120313EA00720894
:101F3A00E9000130DF005F08EC0703306C02031C84
:101F4A00A72FA82F742F1C30DF005F08A400680891
:101F5A00E000E1016008A5006108A6006708E20048
:101F6A00E3016208A7006308A8006608E400E50127
:101F7A006408A9006508AA00B8300A128A11632504
:101F8A000A128A15F701F70A00300A128A15C025C3
:101F9A000A128A15B830F7000030F8000A128A15BA
:101FAA0068250A128A15253083120313DF005F0899
:101FBA00A4006B08E000E1016008A5006108A60022
:101FCA00A4300A128A1163250A128A15F701F70A40
:101FDA0006300A128A15C0250A128A15A430F7009B
:101FEA000030F8000A128A1568250A128A15CF2EBF
:061FFA000A128A110C28F6
:04400E00F120FF3F5F
:00000001FF
