:020000040000FA
:060000000A128A110C280F
:10000800FE00030EF0000A08F1000A128A155A2CA5
:100018000A128A110F288313663084006E300A1280
:100028008A1561240A128A11A0308400E0300A126D
:100038008A1561240A128A1183010A128A11622D13
:100048008312031323088039A8002808AD00230869
:10005800A8002807A9002908B300A21F34283528BA
:1000680036283314330803193A283B284A28330A18
:10007800031D3F28402848280030A3000030A20074
:100088000030A1000030A000A21752280030A300C1
:100098000030A2000030A1000030A00027088039FD
:1000A800A8002808AD062708A8002807A9002908DD
:1000B800B200A61F6028612862283214320803198A
:1000C800662867287628320A031D6B286C2874284E
:1000D8000030A7000030A6000030A5000030A400C2
:1000E800A6177E280030A7000030A6000030A50023
:1000F8000030A4003208031982288328882833088E
:10010800031D8728882891280030A3000030A2000A
:100118000030A1000030A000842B2008A800280887
:10012800F20026080A128A1511250A128A11730884
:1001380083120313B9007208B8003808A800A9018F
:10014800AA01AB012B08B1002A08B0002908AF00AA
:100158002808AE003908A800A901AA01AB012B089C
:10016800B7002A08B6002908B5002808B4002108F5
:10017800A8002808F20025080A128A1511250A1273
:100188008A11730883120313B9007208B80038087B
:10019800A800A901AA01AB012808AE072908031184
:1001A8000318013E0319D928AF072A0803110318B9
:1001B800013E0319E028B0072B0803110318013E7C
:1001C8000319E728B1073908A800A901AA01AB015A
:1001D8002808B407290803110318013E0319F52854
:1001E800B5072A0803110318013E0319FC28B607AE
:1001F8002B0803110318013E03190329B707220826
:10020800A8002808F20024080A128A1511250A12E3
:100218008A11730883120313B9007208B8003808EA
:10022800A800A901AA01AB012808AE0729080311F3
:100238000318013E03192129AF072A0803110318DF
:10024800013E03192829B0072B0803110318013EA2
:1002580003192F29B1073908A800A901AA01AB0180
:100268002808B407290803110318013E03193D297A
:10027800B5072A0803110318013E03194429B607D4
:100288002B0803110318013E03194B29B70708303F
:10029800A8000310AE0DAF0DB00DB10DA80B4D2980
:1002A8002108A8002808F20024080A128A15112536
:1002B8000A128A11730883120313B9007208B8006E
:1002C8003808A8003908A900AA01AB012808AE0718
:1002D800290803110318013E03197329AF072A08D7
:1002E80003110318013E03197A29B0072B080311DB
:1002F8000318013E03198129B1072008A80028081E
:10030800F20025080A128A1511250A128A117308A3
:1003180083120313B9007208B8003808A800390816
:10032800A900AA01AB012808AE0729080311031880
:10033800013E0319A029AF072A0803110318013E3B
:100348000319A729B0072B0803110318013E031945
:10035800AE29B1070830A8000310AE0DAF0DB00DDF
:10036800B10DA80BB0292008A8002808F20024081D
:100378000A128A1511250A128A11730883120313A7
:10038800B9007208B8003808A8003908A900AA01FD
:10039800AB012808AE07290803110318013E031909
:1003A800D629AF072A0803110318013E0319DD29CE
:1003B800B0072B0803110318013E0319E429B107FC
:1003C8002108A8002808F20026080A128A15112513
:1003D8000A128A11730883120313B9007208B8004D
:1003E8003808A8003908A900AA01AB012808B407F1
:1003F800290803110318013E0319032AB5072A081F
:1004080003110318013E03190A2AB6072B08031122
:100418000318013E0319112AB7072208A800280863
:10042800F20025080A128A1511250A128A11730882
:1004380083120313B9007208B8003808A8003908F5
:10044800A900AA01AB012808B40729080311031859
:10045800013E0319302AB5072A0803110318013E83
:100468000319372AB6072B0803110318013E03198D
:100478003E2AB7072208A8002808F20026080A1210
:100488008A1511250A128A11730883120313B900F9
:100498007208B8003808A8003908A900AA01AB01F9
:1004A80008300310A80DA90DAA0DAB0DFF3E031DC2
:1004B800552A2808B407290803110318013E03190F
:1004C800662AB5072A0803110318013E03196D2A85
:1004D800B6072B0803110318013E0319742AB7073E
:1004E8002E08A8002F08A9003008AA003108AB0080
:1004F80018300310AB0CAA0CA90CA80CFF3E031D66
:100508007D2A2808B407290803110318013E031996
:100518008E2AB5072A0803110318013E0319952AE4
:10052800B6072B0803110318013E03199C2AB707C5
:100538000830A8000310AE0DAF0DB00DB10DA80B1B
:100548009E2A33083207A800A901A90D2808823E6F
:10055800B80029080318013EFF3EB900D02A01302F
:10056800A8000310B40DB50DB60DB70DA80BB52A2C
:10057800B11FBF2AC02AC12A34140130A8000310B1
:10058800AE0DAF0DB00DB10DA80BC32AFF30B807E3
:100598000318B90AFF30B907B61FD32AD42AB32AD9
:1005A800B201B11FD82AD92AF52AFF302E05A80092
:1005B800FF302F05A900FF303005AA007F30310534
:1005C800AB002B082A04290428040319EC2AED2A75
:1005D800F02AB201B20AF52A341CF32AF42AF52AC1
:1005E800ED2A32080319F92AFA2A2B2B0130B4070D
:1005F800003003180130B507003003180130B60782
:10060800003003180130B707371C0B2B0C2B2B2B92
:100618003408A8003508A9003608AA003708AB0036
:100628000130AC002B0DAB0CAA0CA90CA80CAC0B20
:10063800162B2B08B7002A08B6002908B500280889
:10064800B4000130B8070318B90A0030B9073908EF
:10065800803AFF0080307F02031D342BFF303802C0
:10066800031C372B382B432B7F3083120313B7001F
:100678008030B6000030B5000030B400782B83120B
:1006880003133908803AFF0080307F02031D4E2B88
:10069800013038020318512B522B5E2B0030831285
:1006A8000313B7000030B6000030B5000030B400C6
:1006B800AD01782B831203133808A8002808B3006B
:1006C800FF30B405FF30B5057F30B6050030B705FB
:1006D800331C6F2B702B712BB6173308A80003102F
:1006E800280CA9002908B7002D08A8002808B70475
:1006F8003708A3003608A2003508A1003408A00076
:1007080008008312031341088039C2004208CB0055
:100718004108C2004207C3004308D200C01F952BFE
:10072800962B972B5214520803199B2B9C2BAC2BFE
:10073800520A031DA02BA12BA92B0030C1000030A9
:10074800C0000030BF000030BE00C017C101B42B8C
:100758000030C1000030C0000030BF000030BE00D3
:100768003D088039C2004208CB063D08C200420756
:10077800C3004308D300BC1FC22BC32BC42B531484
:1007880053080319C82BC92BD92B530A031DCD2B8A
:10079800CE2BD62B0030BD000030BC000030BB0093
:1007A8000030BA00BC17BD01E12B0030BD0000309D
:1007B800BC000030BB000030BA003D083C043B04DC
:1007C8003A04031DE82BE92B022C0030C10000304D
:1007D800C0000030BF000030BE008030C0047F3051
:1007E800C1044B08C2004208C1044108BD004008CA
:1007F800BC003F08BB003E08BA00612D5208031D2B
:10080800062C072C102C0030BD000030BC00003036
:10081800BB000030BA00612D5208C200C301430872
:10082800C50053084202C400031CC50344087F3EA8
:10083800CC0045080318013E003ECD004108CA001F
:100848004008C9003F08C8003E08C7000030C10082
:100858000030C0000030BF000030BE000030D100C2
:100868000030D0000030CF000030CE00D301862CFD
:1008780053080319402C412C612C0130C20003108D
:10088800C70DC80DC90DCA0DC20B432C0130C200DB
:100898000310BE0DBF0DC00DC10DC20B4C2CD11FD6
:1008A800562C572C582C3E140130C2000310CE0D84
:1008B800CF0DD00DD10DC20B5A2C3D084A02031D95
:1008C8006F2C3C084902031D6F2C3B084802031D8E
:1008D8006F2C3A084702031C722C732C822C511778
:1008E8003A08C7023B08031C3B0FC8023C08031C1C
:1008F8003C0FC9023D08031C3D0FCA020130C2006B
:100908004208D3071A305302031C8B2C8C2C3C2C26
:100918004A084904480447040319932C942CB32C1F
:100928004E14B32C0130C2000310BE0DBF0DC00D14
:10093800C10DC20B982CD11FA22CA32CA42C3E14A1
:100948000130C2000310CE0DCF0DD00DD10DC20B5A
:10095800A62CFF30CC070318CD0AFF30CD07C01FE7
:10096800B62CB72C962CD301D11FBB2CBC2CD82C61
:10097800FF304E05C200FF304F05C300FF30500561
:10098800C4007F305105C5004508440443044204AF
:100998000319CF2CD02CD32CD301D30AD82C3E1C2E
:1009A800D62CD72CD82CD02C53080319DC2CDD2CB2
:1009B8000E2D0130BE07003003180130BF0700308C
:1009C80003180130C007003003180130C107411C6B
:1009D800EE2CEF2C0E2D3E08C2003F08C300400845
:1009E800C4004108C5000130C600450DC50CC40C43
:1009F800C30CC20CC60BF92C4508C1004408C00042
:100A08004308BF004208BE000130CC070318CD0AD6
:100A18000030CD074D08803AFF0080307F02031D6B
:100A2800172DFF304C02031C1A2D1B2D292DFF30CA
:100A380083120313CC000030CD000030C100003019
:100A4800C0000030BF000030BE00831203134D0801
:100A5800803AFF0080307F02031D342D01304C02A4
:100A68000318372D382D452D83120313CC01CD01E2
:100A78000030C1000030C0000030BF000030BE00B0
:100A8800CB01831203134C08C2004208D200521C47
:100A98004E2D4F2D512DC017552D7F30C2004208C5
:100AA800C0055208C2000310420CC3004308C1002D
:100AB8004B08C2004208C104F92B08000A128A1523
:100AC80085240A128A11F70100300A128A15902526
:100AD8000A128A110B30F7008030F8000A128A15C2
:100AE80038250A128A118316031307108312031379
:100AF80007108316031387108312031387148316B2
:100B08000313071183120313071583120313071026
:100B180001309300831603131418932D942DB32DCD
:100B2800831203131308DF00E001E101E201620808
:100B3800F5006108F4006008F3005F08F200003077
:100B48000A128A11FA260A128A11750883160313E3
:100B5800A3007408A2007308A1007208A000033063
:100B680083120313E0009730DF00DF0BB92DE00B91
:100B7800B92D8312031307148710013093008316CD
:100B880003131418C82DC92DCF2D8312031313086E
:100B9800DF005F08EC00033083120313E000973096
:100BA800DF00DF0BD52DE00BD52D8312031387143F
:100BB800071101309300831603131418E42DE52D53
:100BC800EB2D831203131308DF005F08EB000330DB
:100BD80083120313E0009730DF00DF0BF12DE00BE9
:100BE800F12D8312031307158316031323088312A9
:100BF8000313A70083160313220883120313A60006
:100C080083160313210883120313A5008316031305
:100C1800200883120313A4004330A300FA30A20073
:100C28000030A1000030A0000A128A1124200A1204
:100C38008A11831203132308C1002208C000210867
:100C4800BF002008BE004330BD007F30BC0000302C
:100C5800BB000030BA000A128A1185230A128A11D1
:100C6800831203133D08D7003C08D6003B08D50083
:100C78003A08D4000A128A15FC250A128A1183122E
:100C880003135508EA005408E900ED010A30A000F2
:100C98000030A1006A08A3006908A2000A128A1598
:100CA800C0250A128A11831203132008DF006D0879
:100CB800663E84005F08831380000A30F20000302B
:100CC800F3006A08F5006908F4000A128A11B627C9
:100CD8000A128A11730883120313EA007208E900E2
:100CE8000130DF005F08ED0703306D02031C7D2E25
:100CF8007E2E4A2E1C30DF005F08A4006808E00042
:100D0800E1016008A5006108A6006708E200E301A8
:100D18006208A7006308A8006608E400E501640803
:100D2800A9006508AA00CC300A128A1578260A128A
:100D38008A11F701F70A00300A128A1590250A125B
:100D48008A11CC30F7000030F8000A128A153825CD
:100D58000A128A11253083120313DF005F08A400EA
:100D68006C08E000E1016008A5006108A600B83041
:100D78000A128A1578260A128A11F701F70A06302C
:100D88000A128A1590250A128A11B830F700003025
:100D9800F8000A128A1538250A128A11253083129A
:100DA8000313DF005F08A4006B08E000E10160089E
:100DB800A5006108A600A4300A128A1578260A122E
:100DC8008A11F701F70A0C300A128A1590250A12BF
:100DD8008A11A430F7000030F8000A128A15382565
:100DE8000A128A11892D0A128A110C2883120313F8
:100DF800A00020080319012F022F162FF51F052F19
:100E0800062F162F7209A2007309A3007409A40003
:100E18007509A500A20A0319A30A0319A40A03194C
:100E2800A50A1E2F7508A5007408A4007308A3005E
:100E38007208A2007508740473047204031D252F38
:100E4800262F2F2F0030F5000030F4000030F3007B
:100E58000030F200B52F9630F6007608A100412F39
:100E68000130F6007608A10701300310A50CA40C88
:100E7800A30CA20CFF3E031D392FFE302505031DD0
:100E8800462F472F342F632F0130F6007608A1072D
:100E98000130A207003003180130A30700300318FF
:100EA8000130A407003003180130A50701300310F2
:100EB800A50CA40CA30CA20CFF3E031D5B2FFF3056
:100EC8002505031D682F692F482F752F0130A102B2
:100ED8000130F6000310A20DA30DA40DA50DF60B0D
:100EE8006E2FA41B782F792F7F2F02302102031831
:100EF8007E2F7F2F6A2F2118822F832F8B2FFF3071
:100F0800A205FF30A3057F30A405FF30A505031017
:100F1800A10C2108F600F701F801F90118300310B7
:100F2800F60DF70DF80DF90DFF3E031D932F76080A
:100F3800A2047708A3047808A4047908A504200863
:100F48000319A72FA82FAD2FF51FAB2FAC2FAD2F4F
:100F5800A5172508F5002408F4002308F300220843
:100F6800F2000800F701F801720873040319BD2F95
:100F7800BE2FF52FF901F90ACC2F01300310F20D1D
:100F8800F30DFF3E031DC22F0130F6007608F90766
:100F9800F31FCF2FD02FC12F01300310F70DF80DFD
:100FA800FF3E031DD12F73087502031DDD2F720844
:100FB8007402031CE02FE12FE82F7208F402730873
:100FC800031CF503F502771401300310F30CF20C3F
:100FD800FF3E031DE92F0130F902031DF42FF52F01
:0C0FE800D02F7808F3007708F200080012
:10100000FF1B0A2883137F1883170008840A03191B
:10101000FF0A080008308A000408840A82070034A6
:10102000013400340A34003464340034E8340334C6
:1010300010342734203453343134203420342034D5
:101040002034533432342034203420342034533488
:10105000333420340034253469342E342534693453
:10106000253469345634003425343334693400343B
:1018B40071088A00700E8300FE0E7E0E090064001B
:1018C4008001840A0406031900340406622C83167A
:1018D4000313871187122030831203139400831695
:1018E400031394010800F30083120313880108080A
:1018F40073048800720C031C8612031886160613E0
:101904008617861308000A128A15CC240A128A152F
:101914000A128A1563250A128A150A128A1569247D
:101924000A128A150800F6000D30F500FB30F400A9
:10193400F40B9A2CF50B9A2C9F2CF20176080A12C0
:101944008A1575240A128A150800F300F2013A3048
:1019540073020318AE2CAF2CB72C30307302031C67
:10196400B42CB52CB72CF201F20A720C0800F60064
:101974000D30F500FB30F400F40BBE2CF50BBE2C3F
:10198400C32CF201F20A76080A128A1575240A1287
:101994008A1508008316031788018316031385012B
:1019A4008312031385018316031789018316031316
:1019B400860183120313860183160313960188019B
:1019C40083120313880183160313890183120313FB
:1019D40089010800F601F701721CF12CF22CF82C95
:1019E4007408F6070318F70A7508F707013003109F
:1019F400F40DF50DFF3E031DF92C01300310F30C1B
:101A0400F20CFF3E031D002D72087304031D0B2D01
:101A14000C2DEE2C7708F3007608F2000800FA008B
:101A2400F601F7017208F400F5017408F80075086E
:101A3400F9007A1C1E2D1F2D252D7808F607031892
:101A4400F70A7908F70701300310F80DF90DFF3E86
:101A5400031D262D0310FA0C7A08031D322D332D95
:101A64001B2D7708F3007608F2000800FA014F2DC9
:101A74007A087707840078080318780AFF000A12A6
:101A84008A1500200A128A150A128A15B9240A1224
:101A94008A150130F9007908FA077A087707840073
:101AA40078080318780A83120313FF000A128A15B0
:101AB40000200A128A15003A031D612D622D3A2D69
:101AC4000800831203138801831603138801273047
:101AD400F800F530F700F70B6D2DF80B6D2D323053
:101AE4000A128A1595240A128A1538300A128A15A0
:101AF40095240A128A150C300A128A1595240A12A2
:101B04008A1501300A128A1595240A128A1506309C
:101B14000A128A1595240A128A15080083120313DF
:101B2400A200023077020318982D992DBF2D103092
:101B34002202031C9E2D9F2DA02DBF2D7703031978
:101B4400A42DA52DAB2D80302204A0000030A100CF
:101B5400B02DC0302204A0000030A10020080A12D9
:101B64008A1595240A128A150D30F900FB30F80005
:101B7400F80BBA2DF90BBA2DBF2D080083120313ED
:101B8400200821040319C72DC82DF72DFB01FB0ADA
:101B9400D62D01300310A00DA10DFF3E031DCC2D49
:101BA4000130FA007A08FB07A11FD92DDA2DCB2DBD
:101BB40021082302031DE02D20082202031CE32D2B
:101BC400E42DEA2D2008A2022108031CA303A3028A
:101BD40001300310A10CA00CFF3E031DEB2D0130BE
:101BE400FB02031DF62DF72DDA2D2308A100220890
:101BF400A0000800031083120313560D570DD800DC
:101C04005808DE005E08031D082E092E122E00302F
:101C1400D7000030D6000030D5000030D400772E35
:101C24005408D8005508D9005608DA005708DB00D4
:101C34001F300310DB0CDA0CD90CD80CFF3E031D4B
:101C44001B2E5808DC005C08DD00D617FF30D405D5
:101C5400FF30D505FF30D6050030D7059630DE02BB
:101C6400DE1F352E362E502E5E08803A973E03181E
:101C74003C2E3D2E3E2E092E01300310D70CD60CDF
:101C8400D50CD40CFF3E031D3F2E0130D80058085C
:101C9400DE07031D4E2E4F2E3E2E672E20305E0291
:101CA400031C552E562E622E092E0130D800031027
:101CB400D40DD50DD60DD70DD80B592E0130DE021B
:101CC4005E08031D662E672E572E5D0803196B2EC2
:101CD4006C2E772ED409D509D609D709D40A03194D
:101CE400D50A0319D60A0319D70A08008312031365
:101CF400B5002530AB002B08AE00E92F25303606A1
:101D04000319852E862E922E3608AB0035088400E2
:101D14002B08831380000130AB002B08B507E92F93
:101D2400B301B401B001240884000A128A150A2000
:101D34000A128A150A128A15A7240A128A15031C84
:101D4400A42EA52EE52E83120313B301B4010A3089
:101D5400F2000030F300831203133408F500330853
:101D6400F4000A128A15EC240A128A1573088312E5
:101D74000313B4007208B300240884000A128A15FD
:101D84000A200A128A15D03EAB00FF300318003037
:101D9400AC002B08B3070318B40A2C08B4070130AD
:101DA400AB002B08A407240884000A128A150A2011
:101DB4000A128A150A128A15A7240A128A15031808
:101DC400E42EE52EA92E013083120313A407FF305D
:101DD400240784000A128A150A200A128A15B600FA
:101DE400AB00AC012C08003A0319F92EE92F2B089B
:101DF400003A0319FB2F643A0319042F0D3A03190F
:101E0400042FE92F2E08840083130008B100840AEC
:101E14000008B2000230AB002B08AE07B21F132F2C
:101E2400142F1D2F0330AB002B08B004B109B209E5
:101E3400B10A0319B20AB601B60A3608AB002B0779
:101E4400013E84000A128A150A200A128A15AC007F
:101E54000A128A150A200A128A15AD002D083202C8
:101E6400031D362F2C0831020318392F3A2F3B2F2C
:101E7400452F0130AB002B08B60705303606031D8D
:101E8400442F452F1F2F3308340403194A2F4B2F97
:101E9400572F300803390319502F512F572FFF3074
:101EA400B3070318B40AFF30B4073408803A803CFF
:101EB400031D5E2F330836020318612F622F6E2F25
:101EC400831203133608AB00AC012B08B3022C08B1
:101ED400031CB403B402722F83120313B301B401BD
:101EE400330834040319772F782F8F2F2030AB0059
:101EF400350884002B08831380000130AB002B08C5
:101F0400B507FF30B3070318B40AFF30B40733082A
:101F14003404031D8E2F8F2F782F300803390319B3
:101F2400942F952FA02F2D30AB00350884002B085B
:101F3400831380000130AB002B08B5073608AB00D3
:101F44002B08AF00E02F0A30A0000030A1002F08BA
:101F5400AB002B07013E84000A128A150A200A12DC
:101F64008A15F2000A128A150A200A128A15F30049
:101F74003208F5003108F4000A128A11B6270A1251
:101F84008A15730883120313A3007208A2000A12AD
:101F94008A15C0250A128A15831203132008303EBD
:101FA400AC002C08B6003608AB00350884002B08BA
:101FB400831380000130AB002B08B507FF30AB0062
:101FC4002B08AF072F0A031DE82FE92FA52F013097
:101FD400A407FF30240784000A128A150A200A1273
:101FE4008A15AB002B08B6003608031DFA2FFB2F09
:0C1FF400802E3508840083138001080053
:04400E00F120FF3F5F
:00000001FF
