:020000040000FA
:060000000A128A110C280F
:10000800FE00030EFB000A08FC000A128A112528CC
:100018000A128A110F2883133030FD000130FE00C8
:100028006630FF00203084000A128A1157210A1214
:100038008A11B001B101B201FD0183010A128A11CE
:1000480035298B1D282829283E280B1C2C282D28CB
:100058003E28831203130618322833283728013024
:10006800F9007908FD0786183A283B283D28013011
:10007800FD020B10831203130C1F43284428672822
:100088009F184728482867281030F0000030F100F2
:100098001E08F900FA017908F2007A08F3000A123A
:1000A8008A118F200A128A11710883120313B10072
:1000B8007008B0001030F900F90B602800008312B6
:1000C80003139F140C138B1E6A286B2888280B1D9A
:1000D8006E286F288828B201091873287728831298
:1000E800031389147A288312031389100310891CB7
:1000F80003140318802884288312031309148728FB
:100108008312031309100B117C088A007B0E8300ED
:10011800FE0E7E0E0900F601F11F932894289B28F5
:10012800F009F109F00A0319F10AF601F60AF31FBA
:100138009E289F28A828F209F309F20A0319F30A4E
:100148000130F4007408F606F701F801700871042C
:100158000319AF28B028E728F501F50ABE280130B1
:100168000310F00DF10DFF3E031DB4280130F4001B
:100178007408F507F11FC128C228B32801300310FD
:10018800F70DF80DFF3E031DC32871087302031D08
:10019800CF2870087202031CD228D328DA287008E6
:1001A800F2027108031CF303F30277140130031001
:1001B800F10CF00CFF3E031DDB280130F502031D96
:1001C800E628E728C22876080319EB28EC28F12846
:1001D800F709F809F70A0319F80A7808F100770807
:1001E800F0000800E8308B004030831203138C00C5
:1001F8004030831603138C009F0181308312031350
:100208009F009E01831603139E0106308100013072
:1002180083160317880001308316031385008312A1
:10022800031385018316031789010330831603130B
:100238008600831203138601033083160313960086
:10024800870183120313870183160313880183121E
:100258000313880183160313890183120313890189
:1002680008000A128A11F6200A128A110F30831226
:100278000313B300B30B3E294129831203139F14C0
:100288000914163081007D0887003008203E84005C
:1002980083130008880047290A128A110C287E084F
:1002A8008A007F0882000A128A1153210A128A11D1
:1002B8008000840A04087D0603190034FF0A031924
:1002C800FE0A57293F3406345B344F3466346D34A4
:1002D8007D3407347F346F3477347C3439345E347A
:0402E80079347134C0
:04400E00F120FF3F5F
:00000001FF
