:020000040000FA
:060000000A128A110C280F
:10000800FE00030EF1000A08F2000A128A115628AF
:100018000A128A110F280A128A118F200A128A11CD
:10002800F40083010A128A117D28C9308B00403000
:10003800831203138C004030831603138C009F0136
:100048008130831203139F009E01831603139E01C0
:1000580001308316031788000130831603138500C7
:10006800831203138501831603178901033083164E
:1000780003138600831203138601033083160313C8
:1000880096008701831203138701831603138801DF
:100098008312031388018316031389018312031340
:1000A800890108008B1D59285A286F280B1C5D28C8
:1000B8005E286F280B10831203130618642865281E
:1000C80069280130F0007008F40786186C286D283C
:1000D8006F280130F402831203130C1F742875284B
:1000E80076280C1372088A00710E8300FE0E7E0EAD
:1000F80009000A128A1119200A128A110D30F30018
:10010800F30B8428831203139F147408870089282B
:080118000A128A110C280134BF
:04400E00F120FF3F5F
:00000001FF
