:020000040000FA
:060000000A128A110C280F
:10000800FE00030EF2000A08F3000A128A113E28C5
:100018000A128A110F28F40183010A128A1166282C
:1000280083160317880183160313850183120313AC
:10003800850183160317890103308316031386008D
:100048008312031386010330831603139600870176
:100058008312031387018316031388018312031382
:1000680088018316031389018312031389018930D8
:100078008B0008008B1D412842285F280B1C45284F
:1000880046285F288312031306184B284C285E283D
:100098000B10740803195128522859287408F000C5
:1000A8007007F1007108F4005F280130F000700853
:1000B800F4075F280B1073088A00720E8300FE0E87
:1000C8007E0E09000A128A1114200A128A11740875
:0E00D8008312031387006B280A128A110C286A
:04400E00F120FF3F5F
:00000001FF
