:020000040000FA
:060000000A128A110C280F
:10000800FE00030EF2000A08F3000A128A112628DD
:100018000A128A110F2883133030FD000130FE00C8
:100028002F30FF00203084000A128A1120210A1282
:100038008A11F801F901FA01FB01FC0183010A1296
:100048008A119C288B1D29282A283F280B1C2D281B
:100058002E283F28831203130618332834283828FB
:100068000130F0007008FC0786183B283C283E2821
:100078000130FC020B10831203130C1F442845287F
:1000880064289F184828492864281E08F00004306E
:100098000310F00CFF3E031D4C2870080F39F100C7
:1000A8007108F9001E080F39F0007008F8001030C8
:1000B800F000F00B5D280000831203139F140C134B
:1000C8008B1E6728682895280B1D6B286C28952897
:1000D80009186F287328831203138914762883124A
:1000E800031389100310891C031403187C28802823
:1000F8008312031309148328831203130910091C9C
:10010800862887288B287808F0007008FB00891C4F
:100118008E288F2893287908F0007008FB00FA01D0
:100128000B1173088A00720E8300FE0E7E0E090002
:100138000A128A11DD200A128A111030F400F40B19
:10014800A3280000831203139F140914D4308100DC
:100158007C0887007B08203E840083130008880001
:100168007808F400F501F40EF50EF030F505740882
:100178000F39F504F030F40579087407F6007508AE
:100188000318750AF7007708803A803C031DCE28CB
:1001980076087C020318D128D228D62883120313A4
:1001A8000915AC28831203130911AC280A128A1105
:1001B8000C28E8308B004030831203138C00403049
:1001C800831603138C009F018130831203139F0051
:1001D8009E01831603139E010630810001308316A9
:1001E8000317880001308316031385008312031355
:1001F80085018316031789010330831603138600CC
:1002080083120313860103308316031396008701B4
:1002180083120313870183160313880183120313C0
:1002280088018316031389018312031389010800C7
:100238007E088A007F0882000A128A111C210A128D
:100248008A118000840A04087D0603190034FF0A15
:100258000319FE0A20293F3406345B344F346634D0
:100268006D347D3407347F346F3477347C343934DB
:060278005E34793471349C
:04400E00F120FF3F5F
:00000001FF
