:020000040000FA
:060000000A128A110C280F
:10000800FE00030EF2000A08F3000A128A112628DD
:100018000A128A110F2883133030FD000130FE00C8
:100028002130FF00203084000A128A1112210A129E
:100038008A11F601F701F801F901FA0183010A12A0
:100048008A11DB288B1D29282A283F280B1C2D28DC
:100058002E283F28831203130618332834283828FB
:100068000130F0007008FA0786183B283C283E2823
:100078000130FA020B10831203130C1F4428452881
:1000880064289F184828492864281E08F00004306E
:100098000310F00CFF3E031D4C2870080F39F100C7
:1000A8007108F7001E080F39F0007008F6001030CC
:1000B800F000F00B5D280000831203139F140C134B
:1000C8008B1E6728682895280B1D6B286C28952897
:1000D80009186F287328831203138914762883124A
:1000E800031389100310891C031403187C28802823
:1000F8008312031309148328831203130910091C9C
:10010800862887288B287608F0007008F900891C53
:100118008E288F2893287708F0007008F900F801D6
:100128000B1173088A00720E8300FE0E7E0E090002
:10013800E8308B004030831203138C004030831664
:1001480003138C009F018130831203139F009E01CB
:10015800831603139E0106308100013083160317AE
:100168008800013083160313850083120313850169
:10017800831603178901033083160313860083123D
:100188000313860103308316031396008701831235
:10019800031387018316031388018312031388014D
:1001A80083160313890183120313890108000A12B5
:1001B8008A119C200A128A111030F400F40BE228EC
:1001C8000000831203139F140914D43081007A08A5
:1001D80087007908203E8400831300088800770888
:1001E8007607F400F501F50D7508803A803C031D8B
:1001F800FF2874087A0203180229032907298312A1
:1002080003130915EB28831203130911EB280A12AB
:100218008A110C287E088A007F0882000A128A1137
:100228000E210A128A118000840A04087D06031927
:100238000034FF0A0319FE0A12293F3406345B34DE
:100248004F3466346D347D3407347F346F347734FB
:0A0258007C3439345E34793471349B
:04400E00F120FF3F5F
:00000001FF
